{
  "contractName": "CryptoCoffee",
  "abi": [
    {
      "inputs": [],
      "stateMutability": "nonpayable",
      "type": "constructor"
    },
    {
      "anonymous": false,
      "inputs": [
        {
          "indexed": true,
          "internalType": "address",
          "name": "owner",
          "type": "address"
        },
        {
          "indexed": true,
          "internalType": "address",
          "name": "approved",
          "type": "address"
        },
        {
          "indexed": true,
          "internalType": "uint256",
          "name": "tokenId",
          "type": "uint256"
        }
      ],
      "name": "Approval",
      "type": "event"
    },
    {
      "anonymous": false,
      "inputs": [
        {
          "indexed": true,
          "internalType": "address",
          "name": "owner",
          "type": "address"
        },
        {
          "indexed": true,
          "internalType": "address",
          "name": "operator",
          "type": "address"
        },
        {
          "indexed": false,
          "internalType": "bool",
          "name": "approved",
          "type": "bool"
        }
      ],
      "name": "ApprovalForAll",
      "type": "event"
    },
    {
      "anonymous": false,
      "inputs": [
        {
          "indexed": true,
          "internalType": "address",
          "name": "previousOwner",
          "type": "address"
        },
        {
          "indexed": true,
          "internalType": "address",
          "name": "newOwner",
          "type": "address"
        }
      ],
      "name": "OwnershipTransferred",
      "type": "event"
    },
    {
      "anonymous": false,
      "inputs": [
        {
          "indexed": false,
          "internalType": "uint256",
          "name": "tokenId",
          "type": "uint256"
        },
        {
          "indexed": false,
          "internalType": "uint256",
          "name": "price",
          "type": "uint256"
        },
        {
          "indexed": false,
          "internalType": "address",
          "name": "buyer",
          "type": "address"
        }
      ],
      "name": "SaleSuccessful",
      "type": "event"
    },
    {
      "anonymous": false,
      "inputs": [
        {
          "indexed": true,
          "internalType": "address",
          "name": "from",
          "type": "address"
        },
        {
          "indexed": true,
          "internalType": "address",
          "name": "to",
          "type": "address"
        },
        {
          "indexed": true,
          "internalType": "uint256",
          "name": "tokenId",
          "type": "uint256"
        }
      ],
      "name": "Transfer",
      "type": "event"
    },
    {
      "anonymous": false,
      "inputs": [
        {
          "indexed": false,
          "internalType": "uint256",
          "name": "tokenId",
          "type": "uint256"
        },
        {
          "indexed": false,
          "internalType": "uint256",
          "name": "amount",
          "type": "uint256"
        }
      ],
      "name": "nftPriceSet",
      "type": "event"
    },
    {
      "inputs": [
        {
          "internalType": "address",
          "name": "to",
          "type": "address"
        },
        {
          "internalType": "uint256",
          "name": "tokenId",
          "type": "uint256"
        }
      ],
      "name": "approve",
      "outputs": [],
      "stateMutability": "nonpayable",
      "type": "function"
    },
    {
      "inputs": [
        {
          "internalType": "address",
          "name": "owner",
          "type": "address"
        }
      ],
      "name": "balanceOf",
      "outputs": [
        {
          "internalType": "uint256",
          "name": "",
          "type": "uint256"
        }
      ],
      "stateMutability": "view",
      "type": "function",
      "constant": true
    },
    {
      "inputs": [
        {
          "internalType": "uint256",
          "name": "tokenId",
          "type": "uint256"
        }
      ],
      "name": "getApproved",
      "outputs": [
        {
          "internalType": "address",
          "name": "",
          "type": "address"
        }
      ],
      "stateMutability": "view",
      "type": "function",
      "constant": true
    },
    {
      "inputs": [
        {
          "internalType": "address",
          "name": "owner",
          "type": "address"
        },
        {
          "internalType": "address",
          "name": "operator",
          "type": "address"
        }
      ],
      "name": "isApprovedForAll",
      "outputs": [
        {
          "internalType": "bool",
          "name": "",
          "type": "bool"
        }
      ],
      "stateMutability": "view",
      "type": "function",
      "constant": true
    },
    {
      "inputs": [],
      "name": "name",
      "outputs": [
        {
          "internalType": "string",
          "name": "",
          "type": "string"
        }
      ],
      "stateMutability": "view",
      "type": "function",
      "constant": true
    },
    {
      "inputs": [],
      "name": "owner",
      "outputs": [
        {
          "internalType": "address",
          "name": "",
          "type": "address"
        }
      ],
      "stateMutability": "view",
      "type": "function",
      "constant": true
    },
    {
      "inputs": [
        {
          "internalType": "uint256",
          "name": "tokenId",
          "type": "uint256"
        }
      ],
      "name": "ownerOf",
      "outputs": [
        {
          "internalType": "address",
          "name": "",
          "type": "address"
        }
      ],
      "stateMutability": "view",
      "type": "function",
      "constant": true
    },
    {
      "inputs": [],
      "name": "renounceOwnership",
      "outputs": [],
      "stateMutability": "nonpayable",
      "type": "function"
    },
    {
      "inputs": [
        {
          "internalType": "address",
          "name": "from",
          "type": "address"
        },
        {
          "internalType": "address",
          "name": "to",
          "type": "address"
        },
        {
          "internalType": "uint256",
          "name": "tokenId",
          "type": "uint256"
        }
      ],
      "name": "safeTransferFrom",
      "outputs": [],
      "stateMutability": "nonpayable",
      "type": "function"
    },
    {
      "inputs": [
        {
          "internalType": "address",
          "name": "from",
          "type": "address"
        },
        {
          "internalType": "address",
          "name": "to",
          "type": "address"
        },
        {
          "internalType": "uint256",
          "name": "tokenId",
          "type": "uint256"
        },
        {
          "internalType": "bytes",
          "name": "_data",
          "type": "bytes"
        }
      ],
      "name": "safeTransferFrom",
      "outputs": [],
      "stateMutability": "nonpayable",
      "type": "function"
    },
    {
      "inputs": [
        {
          "internalType": "address",
          "name": "operator",
          "type": "address"
        },
        {
          "internalType": "bool",
          "name": "approved",
          "type": "bool"
        }
      ],
      "name": "setApprovalForAll",
      "outputs": [],
      "stateMutability": "nonpayable",
      "type": "function"
    },
    {
      "inputs": [],
      "name": "symbol",
      "outputs": [
        {
          "internalType": "string",
          "name": "",
          "type": "string"
        }
      ],
      "stateMutability": "view",
      "type": "function",
      "constant": true
    },
    {
      "inputs": [
        {
          "internalType": "uint256",
          "name": "index",
          "type": "uint256"
        }
      ],
      "name": "tokenByIndex",
      "outputs": [
        {
          "internalType": "uint256",
          "name": "",
          "type": "uint256"
        }
      ],
      "stateMutability": "view",
      "type": "function",
      "constant": true
    },
    {
      "inputs": [
        {
          "internalType": "address",
          "name": "owner",
          "type": "address"
        },
        {
          "internalType": "uint256",
          "name": "index",
          "type": "uint256"
        }
      ],
      "name": "tokenOfOwnerByIndex",
      "outputs": [
        {
          "internalType": "uint256",
          "name": "",
          "type": "uint256"
        }
      ],
      "stateMutability": "view",
      "type": "function",
      "constant": true
    },
    {
      "inputs": [],
      "name": "totalSupply",
      "outputs": [
        {
          "internalType": "uint256",
          "name": "",
          "type": "uint256"
        }
      ],
      "stateMutability": "view",
      "type": "function",
      "constant": true
    },
    {
      "inputs": [
        {
          "internalType": "address",
          "name": "from",
          "type": "address"
        },
        {
          "internalType": "address",
          "name": "to",
          "type": "address"
        },
        {
          "internalType": "uint256",
          "name": "tokenId",
          "type": "uint256"
        }
      ],
      "name": "transferFrom",
      "outputs": [],
      "stateMutability": "nonpayable",
      "type": "function"
    },
    {
      "inputs": [
        {
          "internalType": "address",
          "name": "newOwner",
          "type": "address"
        }
      ],
      "name": "transferOwnership",
      "outputs": [],
      "stateMutability": "nonpayable",
      "type": "function"
    },
    {
      "stateMutability": "payable",
      "type": "receive",
      "payable": true
    },
    {
      "inputs": [],
      "name": "getERC20TokenAddress",
      "outputs": [
        {
          "internalType": "address",
          "name": "",
          "type": "address"
        }
      ],
      "stateMutability": "view",
      "type": "function",
      "constant": true
    },
    {
      "inputs": [
        {
          "internalType": "bytes4",
          "name": "interfaceId",
          "type": "bytes4"
        }
      ],
      "name": "supportsInterface",
      "outputs": [
        {
          "internalType": "bool",
          "name": "",
          "type": "bool"
        }
      ],
      "stateMutability": "view",
      "type": "function",
      "constant": true
    },
    {
      "inputs": [
        {
          "internalType": "uint256",
          "name": "tokenId",
          "type": "uint256"
        }
      ],
      "name": "tokenURI",
      "outputs": [
        {
          "internalType": "string",
          "name": "",
          "type": "string"
        }
      ],
      "stateMutability": "view",
      "type": "function",
      "constant": true
    },
    {
      "inputs": [],
      "name": "buyRicheduToken",
      "outputs": [],
      "stateMutability": "payable",
      "type": "function",
      "payable": true
    },
    {
      "inputs": [
        {
          "internalType": "uint256",
          "name": "_amount",
          "type": "uint256"
        }
      ],
      "name": "sellRicheduToken",
      "outputs": [],
      "stateMutability": "nonpayable",
      "type": "function"
    },
    {
      "inputs": [],
      "name": "getContractAddress",
      "outputs": [
        {
          "internalType": "address",
          "name": "",
          "type": "address"
        }
      ],
      "stateMutability": "view",
      "type": "function",
      "constant": true
    },
    {
      "inputs": [
        {
          "internalType": "string",
          "name": "_hash",
          "type": "string"
        },
        {
          "internalType": "string",
          "name": "_metadata",
          "type": "string"
        },
        {
          "internalType": "uint128",
          "name": "_mintingCost",
          "type": "uint128"
        },
        {
          "internalType": "uint256",
          "name": "userPays",
          "type": "uint256"
        }
      ],
      "name": "mintNFT",
      "outputs": [],
      "stateMutability": "nonpayable",
      "type": "function"
    },
    {
      "inputs": [
        {
          "internalType": "uint256",
          "name": "_tokenId",
          "type": "uint256"
        },
        {
          "internalType": "uint256",
          "name": "_amount",
          "type": "uint256"
        }
      ],
      "name": "setPricePutOnSale",
      "outputs": [],
      "stateMutability": "nonpayable",
      "type": "function"
    },
    {
      "inputs": [
        {
          "internalType": "uint256",
          "name": "_tokenId",
          "type": "uint256"
        }
      ],
      "name": "burnNFT",
      "outputs": [],
      "stateMutability": "nonpayable",
      "type": "function"
    },
    {
      "inputs": [
        {
          "internalType": "uint256",
          "name": "_tokenId",
          "type": "uint256"
        },
        {
          "internalType": "uint256",
          "name": "userPays",
          "type": "uint256"
        }
      ],
      "name": "buyAtSale",
      "outputs": [],
      "stateMutability": "nonpayable",
      "type": "function"
    },
    {
      "inputs": [
        {
          "internalType": "uint256",
          "name": "_tokenId",
          "type": "uint256"
        }
      ],
      "name": "stopSale",
      "outputs": [],
      "stateMutability": "nonpayable",
      "type": "function"
    },
    {
      "inputs": [
        {
          "internalType": "address",
          "name": "_giftTo",
          "type": "address"
        },
        {
          "internalType": "uint256",
          "name": "_tokenId",
          "type": "uint256"
        }
      ],
      "name": "giftNFT",
      "outputs": [],
      "stateMutability": "nonpayable",
      "type": "function"
    },
    {
      "inputs": [],
      "name": "owned_NFTs",
      "outputs": [
        {
          "internalType": "uint256[]",
          "name": "",
          "type": "uint256[]"
        }
      ],
      "stateMutability": "view",
      "type": "function",
      "constant": true
    },
    {
      "inputs": [],
      "name": "onSaleNFTs",
      "outputs": [
        {
          "internalType": "uint256[]",
          "name": "",
          "type": "uint256[]"
        }
      ],
      "stateMutability": "view",
      "type": "function",
      "constant": true
    },
    {
      "inputs": [
        {
          "internalType": "uint256",
          "name": "_tokenId",
          "type": "uint256"
        }
      ],
      "name": "NFT_details",
      "outputs": [
        {
          "components": [
            {
              "internalType": "address",
              "name": "owner",
              "type": "address"
            },
            {
              "internalType": "uint256",
              "name": "price",
              "type": "uint256"
            },
            {
              "internalType": "bool",
              "name": "onSale",
              "type": "bool"
            },
            {
              "internalType": "string",
              "name": "metadata",
              "type": "string"
            },
            {
              "internalType": "string",
              "name": "hash",
              "type": "string"
            }
          ],
          "internalType": "struct CryptoCoffee.NFT",
          "name": "",
          "type": "tuple"
        }
      ],
      "stateMutability": "view",
      "type": "function",
      "constant": true
    }
  ],
  "bytecode": "0x60806040523480156200001157600080fd5b506040518060400160405280600c81526020017f43727970746f436f6666656500000000000000000000000000000000000000008152506040518060400160405280600681526020017f4352505443460000000000000000000000000000000000000000000000000000815250816000908051906020019062000096929190620001ea565b508060019080519060200190620000af929190620001ea565b5050506000620000c4620001e260201b60201c565b905080600b60006101000a81548173ffffffffffffffffffffffffffffffffffffffff021916908373ffffffffffffffffffffffffffffffffffffffff1602179055508073ffffffffffffffffffffffffffffffffffffffff16600073ffffffffffffffffffffffffffffffffffffffff167f8be0079c531659141344cd1fd0a4f28419497f9722a3daafe3b4186f6b6457e060405160405180910390a3503060405162000172906200027b565b6200017e9190620002b9565b604051809103906000f0801580156200019b573d6000803e3d6000fd5b50600c60006101000a81548173ffffffffffffffffffffffffffffffffffffffff021916908373ffffffffffffffffffffffffffffffffffffffff1602179055506200036f565b600033905090565b828054620001f8906200030a565b90600052602060002090601f0160209004810192826200021c576000855562000268565b82601f106200023757805160ff191683800117855562000268565b8280016001018555821562000268579182015b82811115620002675782518255916020019190600101906200024a565b5b50905062000277919062000289565b5090565b611d62806200573883390190565b5b80821115620002a45760008160009055506001016200028a565b5090565b620002b381620002d6565b82525050565b6000602082019050620002d06000830184620002a8565b92915050565b6000620002e382620002ea565b9050919050565b600073ffffffffffffffffffffffffffffffffffffffff82169050919050565b600060028204905060018216806200032357607f821691505b602082108114156200033a576200033962000340565b5b50919050565b7f4e487b7100000000000000000000000000000000000000000000000000000000600052602260045260246000fd5b6153b9806200037f6000396000f3fe6080604052600436106101e75760003560e01c806370a0823111610102578063a22cb46511610095578063f260f7b711610064578063f260f7b714610721578063f2fde38b1461072b578063f746a5ea14610754578063f8dd1f761461077d576101ee565b8063a22cb46514610655578063b88d4fde1461067e578063c87b56dd146106a7578063e985e9c5146106e4576101ee565b80638da5cb5b116100d15780638da5cb5b146105ad57806395d89b41146105d85780639d090f75146106035780639fab53581461062c576101ee565b806370a08231146104f3578063715018a61461053057806380740791146105475780638b79355214610584576101ee565b806332a2c5d01161017a5780634f6ccce7116101495780634f6ccce7146104255780635f7ed8e514610462578063624aa0fd1461048b5780636352211e146104b6576101ee565b806332a2c5d01461037b57806342842e0e146103a65780634b834fcd146103cf5780634d8f5d8d146103fa576101ee565b806318160ddd116101b657806318160ddd146102c157806323b872dd146102ec5780632890e0d7146103155780632f745c591461033e576101ee565b806301ffc9a7146101f357806306fdde0314610230578063081812fc1461025b578063095ea7b314610298576101ee565b366101ee57005b600080fd5b3480156101ff57600080fd5b5061021a60048036038101906102159190613e46565b6107a6565b6040516102279190614b6b565b60405180910390f35b34801561023c57600080fd5b50610245610820565b6040516102529190614b86565b60405180910390f35b34801561026757600080fd5b50610282600480360381019061027d9190613f2b565b6108b2565b60405161028f9190614a22565b60405180910390f35b3480156102a457600080fd5b506102bf60048036038101906102ba9190613de1565b610937565b005b3480156102cd57600080fd5b506102d6610a4f565b6040516102e39190614e4a565b60405180910390f35b3480156102f857600080fd5b50610313600480360381019061030e9190613cdb565b610a5c565b005b34801561032157600080fd5b5061033c60048036038101906103379190613f2b565b610abc565b005b34801561034a57600080fd5b5061036560048036038101906103609190613de1565b610cc6565b6040516103729190614e4a565b60405180910390f35b34801561038757600080fd5b50610390610d6b565b60405161039d9190614a22565b60405180910390f35b3480156103b257600080fd5b506103cd60048036038101906103c89190613cdb565b610d73565b005b3480156103db57600080fd5b506103e4610d93565b6040516103f19190614b49565b60405180910390f35b34801561040657600080fd5b5061040f610e8d565b60405161041c9190614b49565b60405180910390f35b34801561043157600080fd5b5061044c60048036038101906104479190613f2b565b611013565b6040516104599190614e4a565b60405180910390f35b34801561046e57600080fd5b5061048960048036038101906104849190613f7d565b6110aa565b005b34801561049757600080fd5b506104a0611348565b6040516104ad9190614a22565b60405180910390f35b3480156104c257600080fd5b506104dd60048036038101906104d89190613f2b565b611372565b6040516104ea9190614a22565b60405180910390f35b3480156104ff57600080fd5b5061051a60048036038101906105159190613c76565b611424565b6040516105279190614e4a565b60405180910390f35b34801561053c57600080fd5b506105456114dc565b005b34801561055357600080fd5b5061056e60048036038101906105699190613f2b565b611619565b60405161057b9190614e28565b60405180910390f35b34801561059057600080fd5b506105ab60048036038101906105a69190613f2b565b61180c565b005b3480156105b957600080fd5b506105c26119ce565b6040516105cf9190614a22565b60405180910390f35b3480156105e457600080fd5b506105ed6119f8565b6040516105fa9190614b86565b60405180910390f35b34801561060f57600080fd5b5061062a60048036038101906106259190613f7d565b611a8a565b005b34801561063857600080fd5b50610653600480360381019061064e9190613e98565b611b2c565b005b34801561066157600080fd5b5061067c60048036038101906106779190613da5565b611db5565b005b34801561068a57600080fd5b506106a560048036038101906106a09190613d2a565b611f36565b005b3480156106b357600080fd5b506106ce60048036038101906106c99190613f2b565b611f98565b6040516106db9190614b86565b60405180910390f35b3480156106f057600080fd5b5061070b60048036038101906107069190613c9f565b611faa565b6040516107189190614b6b565b60405180910390f35b61072961203e565b005b34801561073757600080fd5b50610752600480360381019061074d9190613c76565b6121b4565b005b34801561076057600080fd5b5061077b60048036038101906107769190613de1565b612360565b005b34801561078957600080fd5b506107a4600480360381019061079f9190613f2b565b61247b565b005b60007f780e9d63000000000000000000000000000000000000000000000000000000007bffffffffffffffffffffffffffffffffffffffffffffffffffffffff1916827bffffffffffffffffffffffffffffffffffffffffffffffffffffffff191614806108195750610818826124cb565b5b9050919050565b60606000805461082f90615197565b80601f016020809104026020016040519081016040528092919081815260200182805461085b90615197565b80156108a85780601f1061087d576101008083540402835291602001916108a8565b820191906000526020600020905b81548152906001019060200180831161088b57829003601f168201915b5050505050905090565b60006108bd82612545565b6108fc576040517f08c379a00000000000000000000000000000000000000000000000000000000081526004016108f390614d48565b60405180910390fd5b6004600083815260200190815260200160002060009054906101000a900473ffffffffffffffffffffffffffffffffffffffff169050919050565b600061094282611372565b90508073ffffffffffffffffffffffffffffffffffffffff168373ffffffffffffffffffffffffffffffffffffffff1614156109b3576040517f08c379a00000000000000000000000000000000000000000000000000000000081526004016109aa90614dc8565b60405180910390fd5b8073ffffffffffffffffffffffffffffffffffffffff166109d26125b1565b73ffffffffffffffffffffffffffffffffffffffff161480610a015750610a00816109fb6125b1565b611faa565b5b610a40576040517f08c379a0000000000000000000000000000000000000000000000000000000008152600401610a3790614c88565b60405180910390fd5b610a4a83836125b9565b505050565b6000600880549050905090565b610a6d610a676125b1565b82612672565b610aac576040517f08c379a0000000000000000000000000000000000000000000000000000000008152600401610aa390614de8565b60405180910390fd5b610ab7838383612750565b505050565b80610ac681612545565b610acf57600080fd5b610ad93382612672565b610ae257600080fd5b60011515600f600084815260200190815260200160002060020160009054906101000a900460ff1615151415610b1757600080fd5b600e600f6000848152602001908152602001600020600401604051610b3c9190614a0b565b908152602001604051809103902060006101000a81549060ff0219169055600f6000838152602001908152602001600020600080820160006101000a81549073ffffffffffffffffffffffffffffffffffffffff021916905560018201600090556002820160006101000a81549060ff0219169055600382016000610bc191906139d4565b600482016000610bd191906139d4565b50506000601060008481526020019081526020016000205490506000600482610bfa919061504e565b82610c05919061507f565b9050600c60009054906101000a900473ffffffffffffffffffffffffffffffffffffffff1673ffffffffffffffffffffffffffffffffffffffff1663a9059cbb33836040518363ffffffff1660e01b8152600401610c64929190614b20565b602060405180830381600087803b158015610c7e57600080fd5b505af1158015610c92573d6000803e3d6000fd5b505050506040513d601f19601f82011682018060405250810190610cb69190613e1d565b50610cc0846129ac565b50505050565b6000610cd183611424565b8210610d12576040517f08c379a0000000000000000000000000000000000000000000000000000000008152600401610d0990614ba8565b60405180910390fd5b600660008473ffffffffffffffffffffffffffffffffffffffff1673ffffffffffffffffffffffffffffffffffffffff168152602001908152602001600020600083815260200190815260200160002054905092915050565b600030905090565b610d8e83838360405180602001604052806000815250611f36565b505050565b60606000610da033611424565b67ffffffffffffffff811115610ddf577f4e487b7100000000000000000000000000000000000000000000000000000000600052604160045260246000fd5b604051908082528060200260200182016040528015610e0d5781602001602082028036833780820191505090505b50905060005b610e1c33611424565b811015610e8557610e2d3382610cc6565b828281518110610e66577f4e487b7100000000000000000000000000000000000000000000000000000000600052603260045260246000fd5b6020026020010181815250508080610e7d906151c9565b915050610e13565b819250505090565b6060600080600080610e9d610a4f565b9050600092505b80831015610ef757600f600084815260200190815260200160002060020160009054906101000a900460ff1615610ee4578380610ee0906151c9565b9450505b8280610eef906151c9565b935050610ea4565b60008467ffffffffffffffff811115610f39577f4e487b7100000000000000000000000000000000000000000000000000000000600052604160045260246000fd5b604051908082528060200260200182016040528015610f675781602001602082028036833780820191505090505b509050600093505b8184101561100857600f600085815260200190815260200160002060020160009054906101000a900460ff1615610ff55783818481518110610fda577f4e487b7100000000000000000000000000000000000000000000000000000000600052603260045260246000fd5b6020026020010181815250508280610ff1906151c9565b9350505b8380611000906151c9565b945050610f6f565b809550505050505090565b600061101d610a4f565b821061105e576040517f08c379a000000000000000000000000000000000000000000000000000000000815260040161105590614e08565b60405180910390fd5b60088281548110611098577f4e487b7100000000000000000000000000000000000000000000000000000000600052603260045260246000fd5b90600052602060002001549050919050565b6000600f600084815260200190815260200160002090508060020160009054906101000a900460ff166110dc57600080fd5b818160010154146110ec57600080fd5b6110f5836129b8565b6000816001015411156111dd57600c60009054906101000a900473ffffffffffffffffffffffffffffffffffffffff1673ffffffffffffffffffffffffffffffffffffffff166323b872dd338360000160009054906101000a900473ffffffffffffffffffffffffffffffffffffffff1684600101546040518463ffffffff1660e01b815260040161118993929190614a9d565b602060405180830381600087803b1580156111a357600080fd5b505af11580156111b7573d6000803e3d6000fd5b505050506040513d601f19601f820116820180604052508101906111db9190613e1d565b505b7f9f2881bde82d4b6e9c19bec262dbbdba7266ff214c4c822aa94035f21b263f338382600101543360405161121493929190614e8e565b60405180910390a161125d600f600085815260200190815260200160002060000160009054906101000a900473ffffffffffffffffffffffffffffffffffffffff163385612750565b823373ffffffffffffffffffffffffffffffffffffffff16600f600086815260200190815260200160002060000160009054906101000a900473ffffffffffffffffffffffffffffffffffffffff1673ffffffffffffffffffffffffffffffffffffffff167fddf252ad1be2c89b69c2b068fc378daa952ba7f163c4a11628f55a4df523b3ef60405160405180910390a433600f600085815260200190815260200160002060000160006101000a81548173ffffffffffffffffffffffffffffffffffffffff021916908373ffffffffffffffffffffffffffffffffffffffff160217905550505050565b6000600c60009054906101000a900473ffffffffffffffffffffffffffffffffffffffff16905090565b6000806002600084815260200190815260200160002060009054906101000a900473ffffffffffffffffffffffffffffffffffffffff169050600073ffffffffffffffffffffffffffffffffffffffff168173ffffffffffffffffffffffffffffffffffffffff16141561141b576040517f08c379a000000000000000000000000000000000000000000000000000000000815260040161141290614cc8565b60405180910390fd5b80915050919050565b60008073ffffffffffffffffffffffffffffffffffffffff168273ffffffffffffffffffffffffffffffffffffffff161415611495576040517f08c379a000000000000000000000000000000000000000000000000000000000815260040161148c90614ca8565b60405180910390fd5b600360008373ffffffffffffffffffffffffffffffffffffffff1673ffffffffffffffffffffffffffffffffffffffff168152602001908152602001600020549050919050565b6114e46125b1565b73ffffffffffffffffffffffffffffffffffffffff166115026119ce565b73ffffffffffffffffffffffffffffffffffffffff1614611558576040517f08c379a000000000000000000000000000000000000000000000000000000000815260040161154f90614d68565b60405180910390fd5b600073ffffffffffffffffffffffffffffffffffffffff16600b60009054906101000a900473ffffffffffffffffffffffffffffffffffffffff1673ffffffffffffffffffffffffffffffffffffffff167f8be0079c531659141344cd1fd0a4f28419497f9722a3daafe3b4186f6b6457e060405160405180910390a36000600b60006101000a81548173ffffffffffffffffffffffffffffffffffffffff021916908373ffffffffffffffffffffffffffffffffffffffff160217905550565b611621613a14565b8161162b81612545565b61163457600080fd5b61163e3382612672565b61164757600080fd5b600f60008481526020019081526020016000206040518060a00160405290816000820160009054906101000a900473ffffffffffffffffffffffffffffffffffffffff1673ffffffffffffffffffffffffffffffffffffffff1673ffffffffffffffffffffffffffffffffffffffff168152602001600182015481526020016002820160009054906101000a900460ff161515151581526020016003820180546116f090615197565b80601f016020809104026020016040519081016040528092919081815260200182805461171c90615197565b80156117695780601f1061173e57610100808354040283529160200191611769565b820191906000526020600020905b81548152906001019060200180831161174c57829003601f168201915b5050505050815260200160048201805461178290615197565b80601f01602080910402602001604051908101604052809291908181526020018280546117ae90615197565b80156117fb5780601f106117d0576101008083540402835291602001916117fb565b820191906000526020600020905b8154815290600101906020018083116117de57829003601f168201915b505050505081525050915050919050565b6000811161181957600080fd5b80600c60009054906101000a900473ffffffffffffffffffffffffffffffffffffffff1673ffffffffffffffffffffffffffffffffffffffff1663dd62ed3e33306040518363ffffffff1660e01b8152600401611877929190614a3d565b60206040518083038186803b15801561188f57600080fd5b505afa1580156118a3573d6000803e3d6000fd5b505050506040513d601f19601f820116820180604052508101906118c79190613f54565b10156118d257600080fd5b600c60009054906101000a900473ffffffffffffffffffffffffffffffffffffffff1673ffffffffffffffffffffffffffffffffffffffff166323b872dd3330846040518463ffffffff1660e01b815260040161193193929190614a9d565b602060405180830381600087803b15801561194b57600080fd5b505af115801561195f573d6000803e3d6000fd5b505050506040513d601f19601f820116820180604052508101906119839190613e1d565b503373ffffffffffffffffffffffffffffffffffffffff166108fc829081150290604051600060405180830381858888f193505050501580156119ca573d6000803e3d6000fd5b5050565b6000600b60009054906101000a900473ffffffffffffffffffffffffffffffffffffffff16905090565b606060018054611a0790615197565b80601f0160208091040260200160405190810160405280929190818152602001828054611a3390615197565b8015611a805780601f10611a5557610100808354040283529160200191611a80565b820191906000526020600020905b815481529060010190602001808311611a6357829003601f168201915b5050505050905090565b81611a9481612545565b611a9d57600080fd5b611aa73382612672565b611ab057600080fd5b6000600f6000858152602001908152602001600020905082816001018190555060018160020160006101000a81548160ff0219169083151502179055507f9eaf9cce24bc6020f5e633cd3134f3ccd322f7b244afcfc4586f12e2b4a1e9868484604051611b1e929190614e65565b60405180910390a150505050565b60011515600e85604051611b4091906149d0565b908152602001604051809103902060009054906101000a900460ff1615151415611b6957600080fd5b80826fffffffffffffffffffffffffffffffff1614611b8757600080fd5b6001600e85604051611b9991906149d0565b908152602001604051809103902060006101000a81548160ff021916908315150217905550611bc8600d6129e1565b6000611bd4600d6129f7565b9050611be03382612a05565b611bea8185612a23565b6000600f6000838152602001908152602001600020905084816003019080519060200190611c19929190613a5b565b5085816004019080519060200190611c32929190613a5b565b50836fffffffffffffffffffffffffffffffff166010600084815260200190815260200160002081905550600c60009054906101000a900473ffffffffffffffffffffffffffffffffffffffff1673ffffffffffffffffffffffffffffffffffffffff166323b872dd3330876040518463ffffffff1660e01b8152600401611cbc93929190614a66565b602060405180830381600087803b158015611cd657600080fd5b505af1158015611cea573d6000803e3d6000fd5b505050506040513d601f19601f82011682018060405250810190611d0e9190613e1d565b50338160000160006101000a81548173ffffffffffffffffffffffffffffffffffffffff021916908373ffffffffffffffffffffffffffffffffffffffff160217905550813373ffffffffffffffffffffffffffffffffffffffff163073ffffffffffffffffffffffffffffffffffffffff167fddf252ad1be2c89b69c2b068fc378daa952ba7f163c4a11628f55a4df523b3ef60405160405180910390a4505050505050565b611dbd6125b1565b73ffffffffffffffffffffffffffffffffffffffff168273ffffffffffffffffffffffffffffffffffffffff161415611e2b576040517f08c379a0000000000000000000000000000000000000000000000000000000008152600401611e2290614c48565b60405180910390fd5b8060056000611e386125b1565b73ffffffffffffffffffffffffffffffffffffffff1673ffffffffffffffffffffffffffffffffffffffff16815260200190815260200160002060008473ffffffffffffffffffffffffffffffffffffffff1673ffffffffffffffffffffffffffffffffffffffff16815260200190815260200160002060006101000a81548160ff0219169083151502179055508173ffffffffffffffffffffffffffffffffffffffff16611ee56125b1565b73ffffffffffffffffffffffffffffffffffffffff167f17307eab39ab6107e8899845ad3d59bd9653f200f220920489ca2b5937696c3183604051611f2a9190614b6b565b60405180910390a35050565b611f47611f416125b1565b83612672565b611f86576040517f08c379a0000000000000000000000000000000000000000000000000000000008152600401611f7d90614de8565b60405180910390fd5b611f9284848484612a97565b50505050565b6060611fa382612af3565b9050919050565b6000600560008473ffffffffffffffffffffffffffffffffffffffff1673ffffffffffffffffffffffffffffffffffffffff16815260200190815260200160002060008373ffffffffffffffffffffffffffffffffffffffff1673ffffffffffffffffffffffffffffffffffffffff16815260200190815260200160002060009054906101000a900460ff16905092915050565b6000341161204b57600080fd5b34600c60009054906101000a900473ffffffffffffffffffffffffffffffffffffffff1673ffffffffffffffffffffffffffffffffffffffff166370a08231306040518263ffffffff1660e01b81526004016120a79190614a22565b60206040518083038186803b1580156120bf57600080fd5b505afa1580156120d3573d6000803e3d6000fd5b505050506040513d601f19601f820116820180604052508101906120f79190613f54565b101561210257600080fd5b600c60009054906101000a900473ffffffffffffffffffffffffffffffffffffffff1673ffffffffffffffffffffffffffffffffffffffff1663a9059cbb33346040518363ffffffff1660e01b815260040161215f929190614b20565b602060405180830381600087803b15801561217957600080fd5b505af115801561218d573d6000803e3d6000fd5b505050506040513d601f19601f820116820180604052508101906121b19190613e1d565b50565b6121bc6125b1565b73ffffffffffffffffffffffffffffffffffffffff166121da6119ce565b73ffffffffffffffffffffffffffffffffffffffff1614612230576040517f08c379a000000000000000000000000000000000000000000000000000000000815260040161222790614d68565b60405180910390fd5b600073ffffffffffffffffffffffffffffffffffffffff168173ffffffffffffffffffffffffffffffffffffffff1614156122a0576040517f08c379a000000000000000000000000000000000000000000000000000000000815260040161229790614be8565b60405180910390fd5b8073ffffffffffffffffffffffffffffffffffffffff16600b60009054906101000a900473ffffffffffffffffffffffffffffffffffffffff1673ffffffffffffffffffffffffffffffffffffffff167f8be0079c531659141344cd1fd0a4f28419497f9722a3daafe3b4186f6b6457e060405160405180910390a380600b60006101000a81548173ffffffffffffffffffffffffffffffffffffffff021916908373ffffffffffffffffffffffffffffffffffffffff16021790555050565b8061236a81612545565b61237357600080fd5b61237d3382612672565b61238657600080fd5b60011515600f600084815260200190815260200160002060020160009054906101000a900460ff16151514156123bb57600080fd5b6123c6338484610d73565b82600f600084815260200190815260200160002060000160006101000a81548173ffffffffffffffffffffffffffffffffffffffff021916908373ffffffffffffffffffffffffffffffffffffffff160217905550818373ffffffffffffffffffffffffffffffffffffffff163373ffffffffffffffffffffffffffffffffffffffff167fddf252ad1be2c89b69c2b068fc378daa952ba7f163c4a11628f55a4df523b3ef60405160405180910390a4505050565b8061248581612545565b61248e57600080fd5b6124983382612672565b6124a157600080fd5b600f600083815260200190815260200160002060020160006101000a81549060ff02191690555050565b60007f780e9d63000000000000000000000000000000000000000000000000000000007bffffffffffffffffffffffffffffffffffffffffffffffffffffffff1916827bffffffffffffffffffffffffffffffffffffffffffffffffffffffff1916148061253e575061253d82612c45565b5b9050919050565b60008073ffffffffffffffffffffffffffffffffffffffff166002600084815260200190815260200160002060009054906101000a900473ffffffffffffffffffffffffffffffffffffffff1673ffffffffffffffffffffffffffffffffffffffff1614159050919050565b600033905090565b816004600083815260200190815260200160002060006101000a81548173ffffffffffffffffffffffffffffffffffffffff021916908373ffffffffffffffffffffffffffffffffffffffff160217905550808273ffffffffffffffffffffffffffffffffffffffff1661262c83611372565b73ffffffffffffffffffffffffffffffffffffffff167f8c5be1e5ebec7d5bd14f71427d1e84f3dd0314c0f7b2291e5b200ac8c7c3b92560405160405180910390a45050565b600061267d82612545565b6126bc576040517f08c379a00000000000000000000000000000000000000000000000000000000081526004016126b390614c68565b60405180910390fd5b60006126c783611372565b90508073ffffffffffffffffffffffffffffffffffffffff168473ffffffffffffffffffffffffffffffffffffffff16148061273657508373ffffffffffffffffffffffffffffffffffffffff1661271e846108b2565b73ffffffffffffffffffffffffffffffffffffffff16145b8061274757506127468185611faa565b5b91505092915050565b8273ffffffffffffffffffffffffffffffffffffffff1661277082611372565b73ffffffffffffffffffffffffffffffffffffffff16146127c6576040517f08c379a00000000000000000000000000000000000000000000000000000000081526004016127bd90614d88565b60405180910390fd5b600073ffffffffffffffffffffffffffffffffffffffff168273ffffffffffffffffffffffffffffffffffffffff161415612836576040517f08c379a000000000000000000000000000000000000000000000000000000000815260040161282d90614c28565b60405180910390fd5b612841838383612d27565b61284c6000826125b9565b6001600360008573ffffffffffffffffffffffffffffffffffffffff1673ffffffffffffffffffffffffffffffffffffffff168152602001908152602001600020600082825461289c919061507f565b925050819055506001600360008473ffffffffffffffffffffffffffffffffffffffff1673ffffffffffffffffffffffffffffffffffffffff16815260200190815260200160002060008282546128f39190614ff8565b92505081905550816002600083815260200190815260200160002060006101000a81548173ffffffffffffffffffffffffffffffffffffffff021916908373ffffffffffffffffffffffffffffffffffffffff160217905550808273ffffffffffffffffffffffffffffffffffffffff168473ffffffffffffffffffffffffffffffffffffffff167fddf252ad1be2c89b69c2b068fc378daa952ba7f163c4a11628f55a4df523b3ef60405160405180910390a4505050565b6129b581612d37565b50565b600f600082815260200190815260200160002060020160006101000a81549060ff021916905550565b6001816000016000828254019250508190555050565b600081600001549050919050565b612a1f828260405180602001604052806000815250612d8a565b5050565b612a2c82612545565b612a6b576040517f08c379a0000000000000000000000000000000000000000000000000000000008152600401612a6290614ce8565b60405180910390fd5b80600a60008481526020019081526020016000209080519060200190612a92929190613a5b565b505050565b612aa2848484612750565b612aae84848484612de5565b612aed576040517f08c379a0000000000000000000000000000000000000000000000000000000008152600401612ae490614bc8565b60405180910390fd5b50505050565b6060612afe82612545565b612b3d576040517f08c379a0000000000000000000000000000000000000000000000000000000008152600401612b3490614d28565b60405180910390fd5b6000600a60008481526020019081526020016000208054612b5d90615197565b80601f0160208091040260200160405190810160405280929190818152602001828054612b8990615197565b8015612bd65780601f10612bab57610100808354040283529160200191612bd6565b820191906000526020600020905b815481529060010190602001808311612bb957829003601f168201915b505050505090506000612be7612f7c565b9050600081511415612bfd578192505050612c40565b600082511115612c32578082604051602001612c1a9291906149e7565b60405160208183030381529060405292505050612c40565b612c3b84612f93565b925050505b919050565b60007f80ac58cd000000000000000000000000000000000000000000000000000000007bffffffffffffffffffffffffffffffffffffffffffffffffffffffff1916827bffffffffffffffffffffffffffffffffffffffffffffffffffffffff19161480612d1057507f5b5e139f000000000000000000000000000000000000000000000000000000007bffffffffffffffffffffffffffffffffffffffffffffffffffffffff1916827bffffffffffffffffffffffffffffffffffffffffffffffffffffffff1916145b80612d205750612d1f8261303a565b5b9050919050565b612d328383836130a4565b505050565b612d40816131b8565b6000600a60008381526020019081526020016000208054612d6090615197565b905014612d8757600a60008281526020019081526020016000206000612d8691906139d4565b5b50565b612d9483836132c9565b612da16000848484612de5565b612de0576040517f08c379a0000000000000000000000000000000000000000000000000000000008152600401612dd790614bc8565b60405180910390fd5b505050565b6000612e068473ffffffffffffffffffffffffffffffffffffffff16613497565b15612f6f578373ffffffffffffffffffffffffffffffffffffffff1663150b7a02612e2f6125b1565b8786866040518563ffffffff1660e01b8152600401612e519493929190614ad4565b602060405180830381600087803b158015612e6b57600080fd5b505af1925050508015612e9c57506040513d601f19601f82011682018060405250810190612e999190613e6f565b60015b612f1f573d8060008114612ecc576040519150601f19603f3d011682016040523d82523d6000602084013e612ed1565b606091505b50600081511415612f17576040517f08c379a0000000000000000000000000000000000000000000000000000000008152600401612f0e90614bc8565b60405180910390fd5b805181602001fd5b63150b7a0260e01b7bffffffffffffffffffffffffffffffffffffffffffffffffffffffff1916817bffffffffffffffffffffffffffffffffffffffffffffffffffffffff191614915050612f74565b600190505b949350505050565b606060405180602001604052806000815250905090565b6060612f9e82612545565b612fdd576040517f08c379a0000000000000000000000000000000000000000000000000000000008152600401612fd490614da8565b60405180910390fd5b6000612fe7612f7c565b905060008151116130075760405180602001604052806000815250613032565b80613011846134aa565b6040516020016130229291906149e7565b6040516020818303038152906040525b915050919050565b60007f01ffc9a7000000000000000000000000000000000000000000000000000000007bffffffffffffffffffffffffffffffffffffffffffffffffffffffff1916827bffffffffffffffffffffffffffffffffffffffffffffffffffffffff1916149050919050565b6130af838383613657565b600073ffffffffffffffffffffffffffffffffffffffff168373ffffffffffffffffffffffffffffffffffffffff1614156130f2576130ed8161365c565b613131565b8173ffffffffffffffffffffffffffffffffffffffff168373ffffffffffffffffffffffffffffffffffffffff16146131305761312f83826136a5565b5b5b600073ffffffffffffffffffffffffffffffffffffffff168273ffffffffffffffffffffffffffffffffffffffff1614156131745761316f81613812565b6131b3565b8273ffffffffffffffffffffffffffffffffffffffff168273ffffffffffffffffffffffffffffffffffffffff16146131b2576131b18282613955565b5b5b505050565b60006131c382611372565b90506131d181600084612d27565b6131dc6000836125b9565b6001600360008373ffffffffffffffffffffffffffffffffffffffff1673ffffffffffffffffffffffffffffffffffffffff168152602001908152602001600020600082825461322c919061507f565b925050819055506002600083815260200190815260200160002060006101000a81549073ffffffffffffffffffffffffffffffffffffffff021916905581600073ffffffffffffffffffffffffffffffffffffffff168273ffffffffffffffffffffffffffffffffffffffff167fddf252ad1be2c89b69c2b068fc378daa952ba7f163c4a11628f55a4df523b3ef60405160405180910390a45050565b600073ffffffffffffffffffffffffffffffffffffffff168273ffffffffffffffffffffffffffffffffffffffff161415613339576040517f08c379a000000000000000000000000000000000000000000000000000000000815260040161333090614d08565b60405180910390fd5b61334281612545565b15613382576040517f08c379a000000000000000000000000000000000000000000000000000000000815260040161337990614c08565b60405180910390fd5b61338e60008383612d27565b6001600360008473ffffffffffffffffffffffffffffffffffffffff1673ffffffffffffffffffffffffffffffffffffffff16815260200190815260200160002060008282546133de9190614ff8565b92505081905550816002600083815260200190815260200160002060006101000a81548173ffffffffffffffffffffffffffffffffffffffff021916908373ffffffffffffffffffffffffffffffffffffffff160217905550808273ffffffffffffffffffffffffffffffffffffffff16600073ffffffffffffffffffffffffffffffffffffffff167fddf252ad1be2c89b69c2b068fc378daa952ba7f163c4a11628f55a4df523b3ef60405160405180910390a45050565b600080823b905060008111915050919050565b606060008214156134f2576040518060400160405280600181526020017f30000000000000000000000000000000000000000000000000000000000000008152509050613652565b600082905060005b6000821461352457808061350d906151c9565b915050600a8261351d919061504e565b91506134fa565b60008167ffffffffffffffff811115613566577f4e487b7100000000000000000000000000000000000000000000000000000000600052604160045260246000fd5b6040519080825280601f01601f1916602001820160405280156135985781602001600182028036833780820191505090505b5090505b6000851461364b576001826135b1919061507f565b9150600a856135c09190615212565b60306135cc9190614ff8565b60f81b818381518110613608577f4e487b7100000000000000000000000000000000000000000000000000000000600052603260045260246000fd5b60200101907effffffffffffffffffffffffffffffffffffffffffffffffffffffffffffff1916908160001a905350600a85613644919061504e565b945061359c565b8093505050505b919050565b505050565b6008805490506009600083815260200190815260200160002081905550600881908060018154018082558091505060019003906000526020600020016000909190919091505550565b600060016136b284611424565b6136bc919061507f565b90506000600760008481526020019081526020016000205490508181146137a1576000600660008673ffffffffffffffffffffffffffffffffffffffff1673ffffffffffffffffffffffffffffffffffffffff168152602001908152602001600020600084815260200190815260200160002054905080600660008773ffffffffffffffffffffffffffffffffffffffff1673ffffffffffffffffffffffffffffffffffffffff168152602001908152602001600020600084815260200190815260200160002081905550816007600083815260200190815260200160002081905550505b6007600084815260200190815260200160002060009055600660008573ffffffffffffffffffffffffffffffffffffffff1673ffffffffffffffffffffffffffffffffffffffff16815260200190815260200160002060008381526020019081526020016000206000905550505050565b60006001600880549050613826919061507f565b905060006009600084815260200190815260200160002054905060006008838154811061387c577f4e487b7100000000000000000000000000000000000000000000000000000000600052603260045260246000fd5b9060005260206000200154905080600883815481106138c4577f4e487b7100000000000000000000000000000000000000000000000000000000600052603260045260246000fd5b906000526020600020018190555081600960008381526020019081526020016000208190555060096000858152602001908152602001600020600090556008805480613939577f4e487b7100000000000000000000000000000000000000000000000000000000600052603160045260246000fd5b6001900381819060005260206000200160009055905550505050565b600061396083611424565b905081600660008573ffffffffffffffffffffffffffffffffffffffff1673ffffffffffffffffffffffffffffffffffffffff168152602001908152602001600020600083815260200190815260200160002081905550806007600084815260200190815260200160002081905550505050565b5080546139e090615197565b6000825580601f106139f25750613a11565b601f016020900490600052602060002090810190613a109190613ae1565b5b50565b6040518060a00160405280600073ffffffffffffffffffffffffffffffffffffffff1681526020016000815260200160001515815260200160608152602001606081525090565b828054613a6790615197565b90600052602060002090601f016020900481019282613a895760008555613ad0565b82601f10613aa257805160ff1916838001178555613ad0565b82800160010185558215613ad0579182015b82811115613acf578251825591602001919060010190613ab4565b5b509050613add9190613ae1565b5090565b5b80821115613afa576000816000905550600101613ae2565b5090565b6000613b11613b0c84614ef6565b614ec5565b905082815260208101848484011115613b2957600080fd5b613b34848285615155565b509392505050565b6000613b4f613b4a84614f26565b614ec5565b905082815260208101848484011115613b6757600080fd5b613b72848285615155565b509392505050565b600081359050613b8981615310565b92915050565b600081359050613b9e81615327565b92915050565b600081519050613bb381615327565b92915050565b600081359050613bc88161533e565b92915050565b600081519050613bdd8161533e565b92915050565b600082601f830112613bf457600080fd5b8135613c04848260208601613afe565b91505092915050565b600082601f830112613c1e57600080fd5b8135613c2e848260208601613b3c565b91505092915050565b600081359050613c4681615355565b92915050565b600081359050613c5b8161536c565b92915050565b600081519050613c708161536c565b92915050565b600060208284031215613c8857600080fd5b6000613c9684828501613b7a565b91505092915050565b60008060408385031215613cb257600080fd5b6000613cc085828601613b7a565b9250506020613cd185828601613b7a565b9150509250929050565b600080600060608486031215613cf057600080fd5b6000613cfe86828701613b7a565b9350506020613d0f86828701613b7a565b9250506040613d2086828701613c4c565b9150509250925092565b60008060008060808587031215613d4057600080fd5b6000613d4e87828801613b7a565b9450506020613d5f87828801613b7a565b9350506040613d7087828801613c4c565b925050606085013567ffffffffffffffff811115613d8d57600080fd5b613d9987828801613be3565b91505092959194509250565b60008060408385031215613db857600080fd5b6000613dc685828601613b7a565b9250506020613dd785828601613b8f565b9150509250929050565b60008060408385031215613df457600080fd5b6000613e0285828601613b7a565b9250506020613e1385828601613c4c565b9150509250929050565b600060208284031215613e2f57600080fd5b6000613e3d84828501613ba4565b91505092915050565b600060208284031215613e5857600080fd5b6000613e6684828501613bb9565b91505092915050565b600060208284031215613e8157600080fd5b6000613e8f84828501613bce565b91505092915050565b60008060008060808587031215613eae57600080fd5b600085013567ffffffffffffffff811115613ec857600080fd5b613ed487828801613c0d565b945050602085013567ffffffffffffffff811115613ef157600080fd5b613efd87828801613c0d565b9350506040613f0e87828801613c37565b9250506060613f1f87828801613c4c565b91505092959194509250565b600060208284031215613f3d57600080fd5b6000613f4b84828501613c4c565b91505092915050565b600060208284031215613f6657600080fd5b6000613f7484828501613c61565b91505092915050565b60008060408385031215613f9057600080fd5b6000613f9e85828601613c4c565b9250506020613faf85828601613c4c565b9150509250929050565b6000613fc583836149b2565b60208301905092915050565b613fda816150b3565b82525050565b613fe9816150b3565b82525050565b6000613ffa82614f7b565b6140048185614fa9565b935061400f83614f56565b8060005b838110156140405781516140278882613fb9565b975061403283614f9c565b925050600181019050614013565b5085935050505092915050565b614056816150c5565b82525050565b614065816150c5565b82525050565b600061407682614f86565b6140808185614fba565b9350614090818560208601615164565b614099816152ff565b840191505092915050565b60006140af82614f91565b6140b98185614fcb565b93506140c9818560208601615164565b6140d2816152ff565b840191505092915050565b60006140e882614f91565b6140f28185614fdc565b9350614102818560208601615164565b61410b816152ff565b840191505092915050565b600061412182614f91565b61412b8185614fed565b935061413b818560208601615164565b80840191505092915050565b6000815461415481615197565b61415e8186614fed565b94506001821660008114614179576001811461418a576141bd565b60ff198316865281860193506141bd565b61419385614f66565b60005b838110156141b557815481890152600182019150602081019050614196565b838801955050505b50505092915050565b60006141d3602b83614fdc565b91507f455243373231456e756d657261626c653a206f776e657220696e646578206f7560008301527f74206f6620626f756e64730000000000000000000000000000000000000000006020830152604082019050919050565b6000614239603283614fdc565b91507f4552433732313a207472616e7366657220746f206e6f6e20455243373231526560008301527f63656976657220696d706c656d656e74657200000000000000000000000000006020830152604082019050919050565b600061429f602683614fdc565b91507f4f776e61626c653a206e6577206f776e657220697320746865207a65726f206160008301527f64647265737300000000000000000000000000000000000000000000000000006020830152604082019050919050565b6000614305601c83614fdc565b91507f4552433732313a20746f6b656e20616c7265616479206d696e746564000000006000830152602082019050919050565b6000614345602483614fdc565b91507f4552433732313a207472616e7366657220746f20746865207a65726f2061646460008301527f72657373000000000000000000000000000000000000000000000000000000006020830152604082019050919050565b60006143ab601983614fdc565b91507f4552433732313a20617070726f766520746f2063616c6c6572000000000000006000830152602082019050919050565b60006143eb602c83614fdc565b91507f4552433732313a206f70657261746f7220717565727920666f72206e6f6e657860008301527f697374656e7420746f6b656e00000000000000000000000000000000000000006020830152604082019050919050565b6000614451603883614fdc565b91507f4552433732313a20617070726f76652063616c6c6572206973206e6f74206f7760008301527f6e6572206e6f7220617070726f76656420666f7220616c6c00000000000000006020830152604082019050919050565b60006144b7602a83614fdc565b91507f4552433732313a2062616c616e636520717565727920666f7220746865207a6560008301527f726f2061646472657373000000000000000000000000000000000000000000006020830152604082019050919050565b600061451d602983614fdc565b91507f4552433732313a206f776e657220717565727920666f72206e6f6e657869737460008301527f656e7420746f6b656e00000000000000000000000000000000000000000000006020830152604082019050919050565b6000614583602e83614fdc565b91507f45524337323155524953746f726167653a2055524920736574206f66206e6f6e60008301527f6578697374656e7420746f6b656e0000000000000000000000000000000000006020830152604082019050919050565b60006145e9602083614fdc565b91507f4552433732313a206d696e7420746f20746865207a65726f20616464726573736000830152602082019050919050565b6000614629603183614fdc565b91507f45524337323155524953746f726167653a2055524920717565727920666f722060008301527f6e6f6e6578697374656e7420746f6b656e0000000000000000000000000000006020830152604082019050919050565b600061468f602c83614fdc565b91507f4552433732313a20617070726f76656420717565727920666f72206e6f6e657860008301527f697374656e7420746f6b656e00000000000000000000000000000000000000006020830152604082019050919050565b60006146f5602083614fdc565b91507f4f776e61626c653a2063616c6c6572206973206e6f7420746865206f776e65726000830152602082019050919050565b6000614735602983614fdc565b91507f4552433732313a207472616e73666572206f6620746f6b656e2074686174206960008301527f73206e6f74206f776e00000000000000000000000000000000000000000000006020830152604082019050919050565b600061479b602f83614fdc565b91507f4552433732314d657461646174613a2055524920717565727920666f72206e6f60008301527f6e6578697374656e7420746f6b656e00000000000000000000000000000000006020830152604082019050919050565b6000614801602183614fdc565b91507f4552433732313a20617070726f76616c20746f2063757272656e74206f776e6560008301527f72000000000000000000000000000000000000000000000000000000000000006020830152604082019050919050565b6000614867603183614fdc565b91507f4552433732313a207472616e736665722063616c6c6572206973206e6f74206f60008301527f776e6572206e6f7220617070726f7665640000000000000000000000000000006020830152604082019050919050565b60006148cd602c83614fdc565b91507f455243373231456e756d657261626c653a20676c6f62616c20696e646578206f60008301527f7574206f6620626f756e647300000000000000000000000000000000000000006020830152604082019050919050565b600060a08301600083015161493e6000860182613fd1565b50602083015161495160208601826149b2565b506040830151614964604086018261404d565b506060830151848203606086015261497c82826140a4565b9150506080830151848203608086015261499682826140a4565b9150508091505092915050565b6149ac81615143565b82525050565b6149bb81615139565b82525050565b6149ca81615139565b82525050565b60006149dc8284614116565b915081905092915050565b60006149f38285614116565b91506149ff8284614116565b91508190509392505050565b6000614a178284614147565b915081905092915050565b6000602082019050614a376000830184613fe0565b92915050565b6000604082019050614a526000830185613fe0565b614a5f6020830184613fe0565b9392505050565b6000606082019050614a7b6000830186613fe0565b614a886020830185613fe0565b614a9560408301846149a3565b949350505050565b6000606082019050614ab26000830186613fe0565b614abf6020830185613fe0565b614acc60408301846149c1565b949350505050565b6000608082019050614ae96000830187613fe0565b614af66020830186613fe0565b614b0360408301856149c1565b8181036060830152614b15818461406b565b905095945050505050565b6000604082019050614b356000830185613fe0565b614b4260208301846149c1565b9392505050565b60006020820190508181036000830152614b638184613fef565b905092915050565b6000602082019050614b80600083018461405c565b92915050565b60006020820190508181036000830152614ba081846140dd565b905092915050565b60006020820190508181036000830152614bc1816141c6565b9050919050565b60006020820190508181036000830152614be18161422c565b9050919050565b60006020820190508181036000830152614c0181614292565b9050919050565b60006020820190508181036000830152614c21816142f8565b9050919050565b60006020820190508181036000830152614c4181614338565b9050919050565b60006020820190508181036000830152614c618161439e565b9050919050565b60006020820190508181036000830152614c81816143de565b9050919050565b60006020820190508181036000830152614ca181614444565b9050919050565b60006020820190508181036000830152614cc1816144aa565b9050919050565b60006020820190508181036000830152614ce181614510565b9050919050565b60006020820190508181036000830152614d0181614576565b9050919050565b60006020820190508181036000830152614d21816145dc565b9050919050565b60006020820190508181036000830152614d418161461c565b9050919050565b60006020820190508181036000830152614d6181614682565b9050919050565b60006020820190508181036000830152614d81816146e8565b9050919050565b60006020820190508181036000830152614da181614728565b9050919050565b60006020820190508181036000830152614dc18161478e565b9050919050565b60006020820190508181036000830152614de1816147f4565b9050919050565b60006020820190508181036000830152614e018161485a565b9050919050565b60006020820190508181036000830152614e21816148c0565b9050919050565b60006020820190508181036000830152614e428184614926565b905092915050565b6000602082019050614e5f60008301846149c1565b92915050565b6000604082019050614e7a60008301856149c1565b614e8760208301846149c1565b9392505050565b6000606082019050614ea360008301866149c1565b614eb060208301856149c1565b614ebd6040830184613fe0565b949350505050565b6000604051905081810181811067ffffffffffffffff82111715614eec57614eeb6152d0565b5b8060405250919050565b600067ffffffffffffffff821115614f1157614f106152d0565b5b601f19601f8301169050602081019050919050565b600067ffffffffffffffff821115614f4157614f406152d0565b5b601f19601f8301169050602081019050919050565b6000819050602082019050919050565b60008190508160005260206000209050919050565b600081519050919050565b600081519050919050565b600081519050919050565b6000602082019050919050565b600082825260208201905092915050565b600082825260208201905092915050565b600082825260208201905092915050565b600082825260208201905092915050565b600081905092915050565b600061500382615139565b915061500e83615139565b9250827fffffffffffffffffffffffffffffffffffffffffffffffffffffffffffffffff0382111561504357615042615243565b5b828201905092915050565b600061505982615139565b915061506483615139565b92508261507457615073615272565b5b828204905092915050565b600061508a82615139565b915061509583615139565b9250828210156150a8576150a7615243565b5b828203905092915050565b60006150be82615119565b9050919050565b60008115159050919050565b60007fffffffff0000000000000000000000000000000000000000000000000000000082169050919050565b60006fffffffffffffffffffffffffffffffff82169050919050565b600073ffffffffffffffffffffffffffffffffffffffff82169050919050565b6000819050919050565b600061514e826150fd565b9050919050565b82818337600083830152505050565b60005b83811015615182578082015181840152602081019050615167565b83811115615191576000848401525b50505050565b600060028204905060018216806151af57607f821691505b602082108114156151c3576151c26152a1565b5b50919050565b60006151d482615139565b91507fffffffffffffffffffffffffffffffffffffffffffffffffffffffffffffffff82141561520757615206615243565b5b600182019050919050565b600061521d82615139565b915061522883615139565b92508261523857615237615272565b5b828206905092915050565b7f4e487b7100000000000000000000000000000000000000000000000000000000600052601160045260246000fd5b7f4e487b7100000000000000000000000000000000000000000000000000000000600052601260045260246000fd5b7f4e487b7100000000000000000000000000000000000000000000000000000000600052602260045260246000fd5b7f4e487b7100000000000000000000000000000000000000000000000000000000600052604160045260246000fd5b6000601f19601f8301169050919050565b615319816150b3565b811461532457600080fd5b50565b615330816150c5565b811461533b57600080fd5b50565b615347816150d1565b811461535257600080fd5b50565b61535e816150fd565b811461536957600080fd5b50565b61537581615139565b811461538057600080fd5b5056fea2646970667358221220c125a5e405c906f149fc74b7e85c607e7492039ec2d2a6347464ea7e349a601b64736f6c6343000800003360806040523480156200001157600080fd5b5060405162001d6238038062001d62833981810160405281019062000037919062000335565b6040518060400160405280600781526020017f52696368656475000000000000000000000000000000000000000000000000008152506040518060400160405280600481526020017f52434544000000000000000000000000000000000000000000000000000000008152506b204fce5e3e250261100000008383838160039080519060200190620000cb9291906200026e565b508060049080519060200190620000e49291906200026e565b505050620000f981836200010460201b60201c565b50505050506200054d565b600073ffffffffffffffffffffffffffffffffffffffff168273ffffffffffffffffffffffffffffffffffffffff16141562000177576040517f08c379a00000000000000000000000000000000000000000000000000000000081526004016200016e90620003b4565b60405180910390fd5b6200018b600083836200026960201b60201c565b80600260008282546200019f919062000404565b92505081905550806000808473ffffffffffffffffffffffffffffffffffffffff1673ffffffffffffffffffffffffffffffffffffffff1681526020019081526020016000206000828254620001f6919062000404565b925050819055508173ffffffffffffffffffffffffffffffffffffffff16600073ffffffffffffffffffffffffffffffffffffffff167fddf252ad1be2c89b69c2b068fc378daa952ba7f163c4a11628f55a4df523b3ef836040516200025d9190620003d6565b60405180910390a35050565b505050565b8280546200027c906200049f565b90600052602060002090601f016020900481019282620002a05760008555620002ec565b82601f10620002bb57805160ff1916838001178555620002ec565b82800160010185558215620002ec579182015b82811115620002eb578251825591602001919060010190620002ce565b5b509050620002fb9190620002ff565b5090565b5b808211156200031a57600081600090555060010162000300565b5090565b6000815190506200032f8162000533565b92915050565b6000602082840312156200034857600080fd5b600062000358848285016200031e565b91505092915050565b600062000370601f83620003f3565b91507f45524332303a206d696e7420746f20746865207a65726f2061646472657373006000830152602082019050919050565b620003ae8162000495565b82525050565b60006020820190508181036000830152620003cf8162000361565b9050919050565b6000602082019050620003ed6000830184620003a3565b92915050565b600082825260208201905092915050565b6000620004118262000495565b91506200041e8362000495565b9250827fffffffffffffffffffffffffffffffffffffffffffffffffffffffffffffffff03821115620004565762000455620004d5565b5b828201905092915050565b60006200046e8262000475565b9050919050565b600073ffffffffffffffffffffffffffffffffffffffff82169050919050565b6000819050919050565b60006002820490506001821680620004b857607f821691505b60208210811415620004cf57620004ce62000504565b5b50919050565b7f4e487b7100000000000000000000000000000000000000000000000000000000600052601160045260246000fd5b7f4e487b7100000000000000000000000000000000000000000000000000000000600052602260045260246000fd5b6200053e8162000461565b81146200054a57600080fd5b50565b611805806200055d6000396000f3fe608060405234801561001057600080fd5b50600436106100cf5760003560e01c806342966c681161008c57806395d89b411161006657806395d89b4114610226578063a457c2d714610244578063a9059cbb14610274578063dd62ed3e146102a4576100cf565b806342966c68146101be57806370a08231146101da57806379cc67901461020a576100cf565b806306fdde03146100d4578063095ea7b3146100f257806318160ddd1461012257806323b872dd14610140578063313ce56714610170578063395093511461018e575b600080fd5b6100dc6102d4565b6040516100e9919061143a565b60405180910390f35b61010c60048036038101906101079190610f58565b610366565b604051610119919061141f565b60405180910390f35b61012a610384565b604051610137919061159c565b60405180910390f35b61015a60048036038101906101559190610f09565b61038e565b604051610167919061141f565b60405180910390f35b61017861048f565b60405161018591906115b7565b60405180910390f35b6101a860048036038101906101a39190610f58565b610498565b6040516101b5919061141f565b60405180910390f35b6101d860048036038101906101d39190610f94565b610544565b005b6101f460048036038101906101ef9190610ea4565b610558565b604051610201919061159c565b60405180910390f35b610224600480360381019061021f9190610f58565b6105a0565b005b61022e610624565b60405161023b919061143a565b60405180910390f35b61025e60048036038101906102599190610f58565b6106b6565b60405161026b919061141f565b60405180910390f35b61028e60048036038101906102899190610f58565b6107aa565b60405161029b919061141f565b60405180910390f35b6102be60048036038101906102b99190610ecd565b6107c8565b6040516102cb919061159c565b60405180910390f35b6060600380546102e390611700565b80601f016020809104026020016040519081016040528092919081815260200182805461030f90611700565b801561035c5780601f106103315761010080835404028352916020019161035c565b820191906000526020600020905b81548152906001019060200180831161033f57829003601f168201915b5050505050905090565b600061037a61037361084f565b8484610857565b6001905092915050565b6000600254905090565b600061039b848484610a22565b6000600160008673ffffffffffffffffffffffffffffffffffffffff1673ffffffffffffffffffffffffffffffffffffffff16815260200190815260200160002060006103e661084f565b73ffffffffffffffffffffffffffffffffffffffff1673ffffffffffffffffffffffffffffffffffffffff16815260200190815260200160002054905082811015610466576040517f08c379a000000000000000000000000000000000000000000000000000000000815260040161045d906114dc565b60405180910390fd5b6104838561047261084f565b858461047e9190611644565b610857565b60019150509392505050565b60006012905090565b600061053a6104a561084f565b8484600160006104b361084f565b73ffffffffffffffffffffffffffffffffffffffff1673ffffffffffffffffffffffffffffffffffffffff16815260200190815260200160002060008873ffffffffffffffffffffffffffffffffffffffff1673ffffffffffffffffffffffffffffffffffffffff1681526020019081526020016000205461053591906115ee565b610857565b6001905092915050565b61055561054f61084f565b82610ca1565b50565b60008060008373ffffffffffffffffffffffffffffffffffffffff1673ffffffffffffffffffffffffffffffffffffffff168152602001908152602001600020549050919050565b60006105b3836105ae61084f565b6107c8565b9050818110156105f8576040517f08c379a00000000000000000000000000000000000000000000000000000000081526004016105ef906114fc565b60405180910390fd5b6106158361060461084f565b84846106109190611644565b610857565b61061f8383610ca1565b505050565b60606004805461063390611700565b80601f016020809104026020016040519081016040528092919081815260200182805461065f90611700565b80156106ac5780601f10610681576101008083540402835291602001916106ac565b820191906000526020600020905b81548152906001019060200180831161068f57829003601f168201915b5050505050905090565b600080600160006106c561084f565b73ffffffffffffffffffffffffffffffffffffffff1673ffffffffffffffffffffffffffffffffffffffff16815260200190815260200160002060008573ffffffffffffffffffffffffffffffffffffffff1673ffffffffffffffffffffffffffffffffffffffff16815260200190815260200160002054905082811015610782576040517f08c379a00000000000000000000000000000000000000000000000000000000081526004016107799061157c565b60405180910390fd5b61079f61078d61084f565b85858461079a9190611644565b610857565b600191505092915050565b60006107be6107b761084f565b8484610a22565b6001905092915050565b6000600160008473ffffffffffffffffffffffffffffffffffffffff1673ffffffffffffffffffffffffffffffffffffffff16815260200190815260200160002060008373ffffffffffffffffffffffffffffffffffffffff1673ffffffffffffffffffffffffffffffffffffffff16815260200190815260200160002054905092915050565b600033905090565b600073ffffffffffffffffffffffffffffffffffffffff168373ffffffffffffffffffffffffffffffffffffffff1614156108c7576040517f08c379a00000000000000000000000000000000000000000000000000000000081526004016108be9061155c565b60405180910390fd5b600073ffffffffffffffffffffffffffffffffffffffff168273ffffffffffffffffffffffffffffffffffffffff161415610937576040517f08c379a000000000000000000000000000000000000000000000000000000000815260040161092e9061149c565b60405180910390fd5b80600160008573ffffffffffffffffffffffffffffffffffffffff1673ffffffffffffffffffffffffffffffffffffffff16815260200190815260200160002060008473ffffffffffffffffffffffffffffffffffffffff1673ffffffffffffffffffffffffffffffffffffffff168152602001908152602001600020819055508173ffffffffffffffffffffffffffffffffffffffff168373ffffffffffffffffffffffffffffffffffffffff167f8c5be1e5ebec7d5bd14f71427d1e84f3dd0314c0f7b2291e5b200ac8c7c3b92583604051610a15919061159c565b60405180910390a3505050565b600073ffffffffffffffffffffffffffffffffffffffff168373ffffffffffffffffffffffffffffffffffffffff161415610a92576040517f08c379a0000000000000000000000000000000000000000000000000000000008152600401610a899061153c565b60405180910390fd5b600073ffffffffffffffffffffffffffffffffffffffff168273ffffffffffffffffffffffffffffffffffffffff161415610b02576040517f08c379a0000000000000000000000000000000000000000000000000000000008152600401610af99061145c565b60405180910390fd5b610b0d838383610e75565b60008060008573ffffffffffffffffffffffffffffffffffffffff1673ffffffffffffffffffffffffffffffffffffffff16815260200190815260200160002054905081811015610b93576040517f08c379a0000000000000000000000000000000000000000000000000000000008152600401610b8a906114bc565b60405180910390fd5b8181610b9f9190611644565b6000808673ffffffffffffffffffffffffffffffffffffffff1673ffffffffffffffffffffffffffffffffffffffff16815260200190815260200160002081905550816000808573ffffffffffffffffffffffffffffffffffffffff1673ffffffffffffffffffffffffffffffffffffffff1681526020019081526020016000206000828254610c2f91906115ee565b925050819055508273ffffffffffffffffffffffffffffffffffffffff168473ffffffffffffffffffffffffffffffffffffffff167fddf252ad1be2c89b69c2b068fc378daa952ba7f163c4a11628f55a4df523b3ef84604051610c93919061159c565b60405180910390a350505050565b600073ffffffffffffffffffffffffffffffffffffffff168273ffffffffffffffffffffffffffffffffffffffff161415610d11576040517f08c379a0000000000000000000000000000000000000000000000000000000008152600401610d089061151c565b60405180910390fd5b610d1d82600083610e75565b60008060008473ffffffffffffffffffffffffffffffffffffffff1673ffffffffffffffffffffffffffffffffffffffff16815260200190815260200160002054905081811015610da3576040517f08c379a0000000000000000000000000000000000000000000000000000000008152600401610d9a9061147c565b60405180910390fd5b8181610daf9190611644565b6000808573ffffffffffffffffffffffffffffffffffffffff1673ffffffffffffffffffffffffffffffffffffffff168152602001908152602001600020819055508160026000828254610e039190611644565b92505081905550600073ffffffffffffffffffffffffffffffffffffffff168373ffffffffffffffffffffffffffffffffffffffff167fddf252ad1be2c89b69c2b068fc378daa952ba7f163c4a11628f55a4df523b3ef84604051610e68919061159c565b60405180910390a3505050565b505050565b600081359050610e89816117a1565b92915050565b600081359050610e9e816117b8565b92915050565b600060208284031215610eb657600080fd5b6000610ec484828501610e7a565b91505092915050565b60008060408385031215610ee057600080fd5b6000610eee85828601610e7a565b9250506020610eff85828601610e7a565b9150509250929050565b600080600060608486031215610f1e57600080fd5b6000610f2c86828701610e7a565b9350506020610f3d86828701610e7a565b9250506040610f4e86828701610e8f565b9150509250925092565b60008060408385031215610f6b57600080fd5b6000610f7985828601610e7a565b9250506020610f8a85828601610e8f565b9150509250929050565b600060208284031215610fa657600080fd5b6000610fb484828501610e8f565b91505092915050565b610fc68161168a565b82525050565b6000610fd7826115d2565b610fe181856115dd565b9350610ff18185602086016116cd565b610ffa81611790565b840191505092915050565b60006110126023836115dd565b91507f45524332303a207472616e7366657220746f20746865207a65726f206164647260008301527f65737300000000000000000000000000000000000000000000000000000000006020830152604082019050919050565b60006110786022836115dd565b91507f45524332303a206275726e20616d6f756e7420657863656564732062616c616e60008301527f63650000000000000000000000000000000000000000000000000000000000006020830152604082019050919050565b60006110de6022836115dd565b91507f45524332303a20617070726f766520746f20746865207a65726f20616464726560008301527f73730000000000000000000000000000000000000000000000000000000000006020830152604082019050919050565b60006111446026836115dd565b91507f45524332303a207472616e7366657220616d6f756e742065786365656473206260008301527f616c616e636500000000000000000000000000000000000000000000000000006020830152604082019050919050565b60006111aa6028836115dd565b91507f45524332303a207472616e7366657220616d6f756e742065786365656473206160008301527f6c6c6f77616e63650000000000000000000000000000000000000000000000006020830152604082019050919050565b60006112106024836115dd565b91507f45524332303a206275726e20616d6f756e74206578636565647320616c6c6f7760008301527f616e6365000000000000000000000000000000000000000000000000000000006020830152604082019050919050565b60006112766021836115dd565b91507f45524332303a206275726e2066726f6d20746865207a65726f2061646472657360008301527f73000000000000000000000000000000000000000000000000000000000000006020830152604082019050919050565b60006112dc6025836115dd565b91507f45524332303a207472616e736665722066726f6d20746865207a65726f20616460008301527f64726573730000000000000000000000000000000000000000000000000000006020830152604082019050919050565b60006113426024836115dd565b91507f45524332303a20617070726f76652066726f6d20746865207a65726f2061646460008301527f72657373000000000000000000000000000000000000000000000000000000006020830152604082019050919050565b60006113a86025836115dd565b91507f45524332303a2064656372656173656420616c6c6f77616e63652062656c6f7760008301527f207a65726f0000000000000000000000000000000000000000000000000000006020830152604082019050919050565b61140a816116b6565b82525050565b611419816116c0565b82525050565b60006020820190506114346000830184610fbd565b92915050565b600060208201905081810360008301526114548184610fcc565b905092915050565b6000602082019050818103600083015261147581611005565b9050919050565b600060208201905081810360008301526114958161106b565b9050919050565b600060208201905081810360008301526114b5816110d1565b9050919050565b600060208201905081810360008301526114d581611137565b9050919050565b600060208201905081810360008301526114f58161119d565b9050919050565b6000602082019050818103600083015261151581611203565b9050919050565b6000602082019050818103600083015261153581611269565b9050919050565b60006020820190508181036000830152611555816112cf565b9050919050565b6000602082019050818103600083015261157581611335565b9050919050565b600060208201905081810360008301526115958161139b565b9050919050565b60006020820190506115b16000830184611401565b92915050565b60006020820190506115cc6000830184611410565b92915050565b600081519050919050565b600082825260208201905092915050565b60006115f9826116b6565b9150611604836116b6565b9250827fffffffffffffffffffffffffffffffffffffffffffffffffffffffffffffffff0382111561163957611638611732565b5b828201905092915050565b600061164f826116b6565b915061165a836116b6565b92508282101561166d5761166c611732565b5b828203905092915050565b600061168382611696565b9050919050565b60008115159050919050565b600073ffffffffffffffffffffffffffffffffffffffff82169050919050565b6000819050919050565b600060ff82169050919050565b60005b838110156116eb5780820151818401526020810190506116d0565b838111156116fa576000848401525b50505050565b6000600282049050600182168061171857607f821691505b6020821081141561172c5761172b611761565b5b50919050565b7f4e487b7100000000000000000000000000000000000000000000000000000000600052601160045260246000fd5b7f4e487b7100000000000000000000000000000000000000000000000000000000600052602260045260246000fd5b6000601f19601f8301169050919050565b6117aa81611678565b81146117b557600080fd5b50565b6117c1816116b6565b81146117cc57600080fd5b5056fea26469706673582212209143b80b28d7d936161831e6e93017768fac579afe3261967c22446a7a44e6d864736f6c63430008000033",
  "immutableReferences": {},
  "source": "pragma solidity ^0.8.0;\r\n\r\nimport \"@openzeppelin/contracts/token/ERC20/presets/ERC20PresetFixedSupply.sol\";\r\nimport \"@openzeppelin/contracts/token/ERC721/extensions/ERC721Enumerable.sol\";\r\nimport \"@openzeppelin/contracts/token/ERC721/extensions/ERC721URIStorage.sol\";\r\nimport \"@openzeppelin/contracts/access/Ownable.sol\";\r\nimport \"@openzeppelin/contracts/utils/Counters.sol\";\r\nimport \"./ERC20.sol\";\r\n\r\ncontract CryptoCoffee is ERC721Enumerable, ERC721URIStorage, Ownable {\r\n    Cybercafe private _token; // IERC20 token instance which will be used for payments.\r\n\r\n    using Counters for Counters.Counter;\r\n    Counters.Counter private _tokenIds;\r\n\r\n    constructor() ERC721(\"CryptoCoffee\", \"CRPTCF\") {\r\n        // This contract takes in ERC20 contract address for deployment.\r\n        _token = new Cybercafe(address(this));\r\n    }\r\n\r\n    function getERC20TokenAddress() public view returns (address) {\r\n        return address(_token);\r\n    }\r\n\r\n    receive() external payable {}\r\n\r\n    event nftPriceSet(uint256 tokenId, uint256 amount); // Emitted when an NFT price is set and put on sale.\r\n    event SaleSuccessful(uint256 tokenId, uint256 price, address buyer); // Emiited when a buyer successfully transfers RCED tokens to seller.\r\n\r\n    struct NFT {\r\n        // Edit: string asset has been removed, name change could be limited to web only, no requirement to put on blockchain.\r\n        address owner; // NFT owner.\r\n        uint256 price; // NFT sale price.\r\n        bool onSale; // NFT on sale bool.\r\n        string metadata; // NFT metadata.\r\n        string hash; // NFT hash.\r\n    }\r\n\r\n    mapping(string => bool) hashExists; // Map hash to bool.\r\n    mapping(uint256 => NFT) tokenIdToNft; // Map token ID to NFT struct.\r\n    mapping(uint256 => uint256) tokenIdToMintingCost; // Map token ID to its minting cost.\r\n\r\n    modifier onlySeller(uint256 _tokenId) {\r\n        // Checks if caller is NFT owner or approved address.\r\n        require(_exists(_tokenId));\r\n        require(_isApprovedOrOwner(msg.sender, _tokenId));\r\n        _;\r\n    }\r\n\r\n    // The following are virtual functions.\r\n    // These do not have any use in this contract.\r\n    // Required to override conflicting functions of ERC721Enumerable and ERC721URIStorage.\r\n    function supportsInterface(bytes4 interfaceId)\r\n        public\r\n        view\r\n        virtual\r\n        override(ERC721Enumerable, ERC721)\r\n        returns (bool)\r\n    {\r\n        return\r\n            interfaceId == type(IERC721Enumerable).interfaceId ||\r\n            super.supportsInterface(interfaceId);\r\n    }\r\n\r\n    function _beforeTokenTransfer(\r\n        address from,\r\n        address to,\r\n        uint256 tokenId\r\n    ) internal virtual override(ERC721, ERC721Enumerable) {\r\n        super._beforeTokenTransfer(from, to, tokenId);\r\n    }\r\n\r\n    function _burn(uint256 tokenId)\r\n        internal\r\n        virtual\r\n        override(ERC721, ERC721URIStorage)\r\n    {\r\n        super._burn(tokenId);\r\n    }\r\n\r\n    function tokenURI(uint256 tokenId)\r\n        public\r\n        view\r\n        virtual\r\n        override(ERC721URIStorage, ERC721)\r\n        returns (string memory)\r\n    {\r\n        return super.tokenURI(tokenId);\r\n    }\r\n\r\n    // Override functions end here.\r\n\r\n    function buyRicheduToken() external payable {\r\n        // The first function any new user will interact with.\r\n        // This allows user to pay ether to this smart contract and get RCED tokens to execute all other functions.\r\n        require(msg.value > 0); // Check if user pays at least something.\r\n        require(_token.balanceOf(address(this)) >= msg.value); // Check if smart contract has enough RCED tokens to give to user.\r\n        _token.transfer(msg.sender, msg.value); // Transfer RCED tokens from smart contract to caller.\r\n    }\r\n\r\n    function sellRicheduToken(uint256 _amount) external {\r\n        // Function to exchange RCED to ETH.\r\n        // This function assumes user has approved the smart contract to transfer tokens on his behalf.\r\n        // More details on how to approve can be found in README.\r\n        // User inputs how much RCED he wants to exchange into ETH.\r\n        require(_amount > 0); // Check if user exchanges at least some tokens.\r\n        require(_token.allowance(msg.sender, address(this)) >= _amount); // Check if caller has approved this smart contract for transferring tokens.\r\n        _token.transferFrom(msg.sender, address(this), _amount); // Transfer RCED tokens from caller to smart contract.\r\n        payable(msg.sender).transfer(_amount); // Send ETH to caller.\r\n    }\r\n\r\n    function getContractAddress() external view returns (address) {\r\n        return address(this);\r\n    }\r\n\r\n    function mintNFT(\r\n        string memory _hash,\r\n        string memory _metadata,\r\n        uint128 _mintingCost,\r\n        uint256 userPays\r\n    ) external {\r\n        // Mint function.\r\n        // _hash, _metadata, _mintingCost automatically fetched.\r\n        // userPays is user input of amount of RCED tokens the user is paying.\r\n        require(hashExists[_hash] != true); // Check if NFT already exists.\r\n        require(_mintingCost == userPays); // Check if userPays is equal to generated mintingCost, revert if not equal.\r\n        hashExists[_hash] = true; // Set hash exists for new NFT.\r\n        _tokenIds.increment();\r\n        uint256 newTokenId = _tokenIds.current(); // Set token ID for NFT.\r\n        _safeMint(msg.sender, newTokenId); // Mint NFT.\r\n        _setTokenURI(newTokenId, _metadata);\r\n        NFT storage nft = tokenIdToNft[newTokenId];\r\n        nft.metadata = _metadata; // Set metadata in struct.\r\n        nft.hash = _hash; // Set hash in struct.\r\n        tokenIdToMintingCost[newTokenId] = _mintingCost; // Map token ID to its minting cost.\r\n        _token.transferFrom(msg.sender, address(this), _mintingCost); // Transfer RCED tokens from caller to smart contract.\r\n        nft.owner = msg.sender; // Set owner in struct.\r\n        emit Transfer(address(this), msg.sender, newTokenId); // Transfer event.\r\n    }\r\n\r\n    function setPricePutOnSale(uint256 _tokenId, uint256 _amount)\r\n        external\r\n        onlySeller(_tokenId)\r\n    {\r\n        // Set price of NFT in RCED tokens.\r\n        NFT storage nft = tokenIdToNft[_tokenId];\r\n        nft.price = _amount; // Set NFT price.\r\n        nft.onSale = true; // Put NFT on sale.\r\n        emit nftPriceSet(_tokenId, _amount); // Price set event.\r\n    }\r\n\r\n    function burnNFT(uint256 _tokenId) external onlySeller(_tokenId) {\r\n        // Burn NFT and send 75% of minting cost back to NFT owner.\r\n        require(tokenIdToNft[_tokenId].onSale != true); // Check if NFT is on sale. Revert if true.\r\n        delete hashExists[tokenIdToNft[_tokenId].hash]; // Delete hash of the NFT. Allows same NFT to be minted again in future.\r\n        delete tokenIdToNft[_tokenId]; // Delete NFT struct.\r\n        uint256 mintingCost = tokenIdToMintingCost[_tokenId]; // Get minting cost in RCED.\r\n        uint256 backToUser = mintingCost - mintingCost / 4; // 75% of minting cost to be paid back to user in RCED.\r\n        _token.transfer(msg.sender, backToUser); // Transfer RCED tokens.\r\n        _burn(_tokenId); // Burn the NFT.\r\n    }\r\n\r\n    function buyAtSale(uint256 _tokenId, uint256 userPays) external {\r\n        // Buy NFT at a sale.\r\n        NFT storage nft = tokenIdToNft[_tokenId];\r\n        require(nft.onSale); // Check if NFT is on sale. Revert if not on sale.\r\n        require(nft.price == userPays); // Check if user is paying what seller asks for. Transaction in RCED tokens. Revert if not equal.\r\n        _removeSale(_tokenId); // Remove NFT from sale to avoid someone else to accidentally pay for sold NFT.\r\n        if (nft.price > 0) {\r\n            _token.transferFrom(msg.sender, nft.owner, nft.price); // Transfer RCED tokens from buyer to NFT owner.\r\n        }\r\n        emit SaleSuccessful(_tokenId, nft.price, msg.sender); // Success event.\r\n        _transfer(tokenIdToNft[_tokenId].owner, msg.sender, _tokenId); // Transfer NFT ownership to buyer.\r\n        emit Transfer(tokenIdToNft[_tokenId].owner, msg.sender, _tokenId); // Transfer event.\r\n        tokenIdToNft[_tokenId].owner = msg.sender; // Update owner in mapping.\r\n    }\r\n\r\n    function _removeSale(uint256 _tokenId) internal {\r\n        // Internal function to remove an NFT from sale after a buyer purchases it.\r\n        delete tokenIdToNft[_tokenId].onSale;\r\n    }\r\n\r\n    function stopSale(uint256 _tokenId) external onlySeller(_tokenId) {\r\n        // Externally called function. Allows seller to make modifications to the sale.\r\n        delete tokenIdToNft[_tokenId].onSale;\r\n    }\r\n\r\n    function giftNFT(address _giftTo, uint256 _tokenId)\r\n        external\r\n        onlySeller(_tokenId)\r\n    {\r\n        // Send an NFT for zero RCED tokens.\r\n        require(tokenIdToNft[_tokenId].onSale != true);\r\n        safeTransferFrom(msg.sender, _giftTo, _tokenId);\r\n        tokenIdToNft[_tokenId].owner = _giftTo;\r\n        emit Transfer(msg.sender, _giftTo, _tokenId);\r\n    }\r\n\r\n    function owned_NFTs() external view returns (uint256[] memory) {\r\n        // Returns token IDs of all NFTs the caller has.\r\n        uint256[] memory nftList = new uint256[](balanceOf(msg.sender));\r\n        uint256 tokenIndex;\r\n\r\n        for (tokenIndex = 0; tokenIndex < balanceOf(msg.sender); tokenIndex++) {\r\n            nftList[tokenIndex] = tokenOfOwnerByIndex(msg.sender, tokenIndex);\r\n        }\r\n        return nftList;\r\n    }\r\n     function onSaleNFTs() external view returns (uint256[] memory) {\r\n        // Returns token IDs of NFTs which are on sale.\r\n        uint256 arraySize = 0;\r\n        uint256 tokenIndex = 0;\r\n        uint256 i = 0;\r\n        uint256 totalSupply = totalSupply();\r\n        for(tokenIndex=0;tokenIndex<totalSupply;tokenIndex++) {\r\n            if(tokenIdToNft[tokenIndex].onSale)\r\n            arraySize++;\r\n        }\r\n        uint256[] memory nftList = new uint256[](arraySize);\r\n        for(tokenIndex=0;tokenIndex<totalSupply;tokenIndex++) {\r\n            if(tokenIdToNft[tokenIndex].onSale) {\r\n                nftList[i] = tokenIndex;\r\n                i++;\r\n            }\r\n        }\r\n        return nftList;\r\n    }\r\n    function NFT_details(uint256 _tokenId)\r\n        external\r\n        view\r\n        onlySeller(_tokenId)\r\n        returns (NFT memory)\r\n    {\r\n        // Returns NFT struct of the token ID.\r\n        return tokenIdToNft[_tokenId];\r\n    }\r\n}\r\n",
  "sourcePath": "C:/Users/user/Desktop/DS/Projects/internship_projects/cryptoCoffee/src/contracts/ERC721.sol",
  "compiler": {
    "name": "solc",
    "version": "0.8.0+commit.c7dfd78e.Emscripten.clang"
  },
  "schemaVersion": "3.4.1",
  "updatedAt": "2021-05-28T07:57:25.927Z",
  "networkType": "ethereum",
  "devdoc": {
    "kind": "dev",
    "methods": {
      "approve(address,uint256)": {
        "details": "See {IERC721-approve}."
      },
      "balanceOf(address)": {
        "details": "See {IERC721-balanceOf}."
      },
      "getApproved(uint256)": {
        "details": "See {IERC721-getApproved}."
      },
      "isApprovedForAll(address,address)": {
        "details": "See {IERC721-isApprovedForAll}."
      },
      "name()": {
        "details": "See {IERC721Metadata-name}."
      },
      "owner()": {
        "details": "Returns the address of the current owner."
      },
      "ownerOf(uint256)": {
        "details": "See {IERC721-ownerOf}."
      },
      "renounceOwnership()": {
        "details": "Leaves the contract without owner. It will not be possible to call `onlyOwner` functions anymore. Can only be called by the current owner. NOTE: Renouncing ownership will leave the contract without an owner, thereby removing any functionality that is only available to the owner."
      },
      "safeTransferFrom(address,address,uint256)": {
        "details": "See {IERC721-safeTransferFrom}."
      },
      "safeTransferFrom(address,address,uint256,bytes)": {
        "details": "See {IERC721-safeTransferFrom}."
      },
      "setApprovalForAll(address,bool)": {
        "details": "See {IERC721-setApprovalForAll}."
      },
      "symbol()": {
        "details": "See {IERC721Metadata-symbol}."
      },
      "tokenByIndex(uint256)": {
        "details": "See {IERC721Enumerable-tokenByIndex}."
      },
      "tokenOfOwnerByIndex(address,uint256)": {
        "details": "See {IERC721Enumerable-tokenOfOwnerByIndex}."
      },
      "totalSupply()": {
        "details": "See {IERC721Enumerable-totalSupply}."
      },
      "transferFrom(address,address,uint256)": {
        "details": "See {IERC721-transferFrom}."
      },
      "transferOwnership(address)": {
        "details": "Transfers ownership of the contract to a new account (`newOwner`). Can only be called by the current owner."
      }
    },
    "version": 1
  },
  "userdoc": {
    "kind": "user",
    "methods": {},
    "version": 1
  }
}