{
  "contractName": "CryptoCoffee",
  "abi": [
    {
      "inputs": [
        {
          "internalType": "contract IERC20",
          "name": "token",
          "type": "address"
        }
      ],
      "stateMutability": "nonpayable",
      "type": "constructor"
    },
    {
      "anonymous": false,
      "inputs": [
        {
          "indexed": true,
          "internalType": "address",
          "name": "owner",
          "type": "address"
        },
        {
          "indexed": true,
          "internalType": "address",
          "name": "approved",
          "type": "address"
        },
        {
          "indexed": true,
          "internalType": "uint256",
          "name": "tokenId",
          "type": "uint256"
        }
      ],
      "name": "Approval",
      "type": "event"
    },
    {
      "anonymous": false,
      "inputs": [
        {
          "indexed": true,
          "internalType": "address",
          "name": "owner",
          "type": "address"
        },
        {
          "indexed": true,
          "internalType": "address",
          "name": "operator",
          "type": "address"
        },
        {
          "indexed": false,
          "internalType": "bool",
          "name": "approved",
          "type": "bool"
        }
      ],
      "name": "ApprovalForAll",
      "type": "event"
    },
    {
      "anonymous": false,
      "inputs": [
        {
          "indexed": true,
          "internalType": "address",
          "name": "previousOwner",
          "type": "address"
        },
        {
          "indexed": true,
          "internalType": "address",
          "name": "newOwner",
          "type": "address"
        }
      ],
      "name": "OwnershipTransferred",
      "type": "event"
    },
    {
      "anonymous": false,
      "inputs": [
        {
          "indexed": false,
          "internalType": "uint256",
          "name": "tokenId",
          "type": "uint256"
        },
        {
          "indexed": false,
          "internalType": "uint256",
          "name": "price",
          "type": "uint256"
        },
        {
          "indexed": false,
          "internalType": "address",
          "name": "buyer",
          "type": "address"
        }
      ],
      "name": "SaleSuccessful",
      "type": "event"
    },
    {
      "anonymous": false,
      "inputs": [
        {
          "indexed": true,
          "internalType": "address",
          "name": "from",
          "type": "address"
        },
        {
          "indexed": true,
          "internalType": "address",
          "name": "to",
          "type": "address"
        },
        {
          "indexed": true,
          "internalType": "uint256",
          "name": "tokenId",
          "type": "uint256"
        }
      ],
      "name": "Transfer",
      "type": "event"
    },
    {
      "anonymous": false,
      "inputs": [
        {
          "indexed": false,
          "internalType": "uint256",
          "name": "tokenId",
          "type": "uint256"
        },
        {
          "indexed": false,
          "internalType": "uint256",
          "name": "amount",
          "type": "uint256"
        }
      ],
      "name": "nftPriceSet",
      "type": "event"
    },
    {
      "inputs": [
        {
          "internalType": "address",
          "name": "to",
          "type": "address"
        },
        {
          "internalType": "uint256",
          "name": "tokenId",
          "type": "uint256"
        }
      ],
      "name": "approve",
      "outputs": [],
      "stateMutability": "nonpayable",
      "type": "function"
    },
    {
      "inputs": [
        {
          "internalType": "address",
          "name": "owner",
          "type": "address"
        }
      ],
      "name": "balanceOf",
      "outputs": [
        {
          "internalType": "uint256",
          "name": "",
          "type": "uint256"
        }
      ],
      "stateMutability": "view",
      "type": "function",
      "constant": true
    },
    {
      "inputs": [
        {
          "internalType": "uint256",
          "name": "tokenId",
          "type": "uint256"
        }
      ],
      "name": "getApproved",
      "outputs": [
        {
          "internalType": "address",
          "name": "",
          "type": "address"
        }
      ],
      "stateMutability": "view",
      "type": "function",
      "constant": true
    },
    {
      "inputs": [
        {
          "internalType": "address",
          "name": "owner",
          "type": "address"
        },
        {
          "internalType": "address",
          "name": "operator",
          "type": "address"
        }
      ],
      "name": "isApprovedForAll",
      "outputs": [
        {
          "internalType": "bool",
          "name": "",
          "type": "bool"
        }
      ],
      "stateMutability": "view",
      "type": "function",
      "constant": true
    },
    {
      "inputs": [],
      "name": "name",
      "outputs": [
        {
          "internalType": "string",
          "name": "",
          "type": "string"
        }
      ],
      "stateMutability": "view",
      "type": "function",
      "constant": true
    },
    {
      "inputs": [],
      "name": "owner",
      "outputs": [
        {
          "internalType": "address",
          "name": "",
          "type": "address"
        }
      ],
      "stateMutability": "view",
      "type": "function",
      "constant": true
    },
    {
      "inputs": [
        {
          "internalType": "uint256",
          "name": "tokenId",
          "type": "uint256"
        }
      ],
      "name": "ownerOf",
      "outputs": [
        {
          "internalType": "address",
          "name": "",
          "type": "address"
        }
      ],
      "stateMutability": "view",
      "type": "function",
      "constant": true
    },
    {
      "inputs": [],
      "name": "renounceOwnership",
      "outputs": [],
      "stateMutability": "nonpayable",
      "type": "function"
    },
    {
      "inputs": [
        {
          "internalType": "address",
          "name": "from",
          "type": "address"
        },
        {
          "internalType": "address",
          "name": "to",
          "type": "address"
        },
        {
          "internalType": "uint256",
          "name": "tokenId",
          "type": "uint256"
        }
      ],
      "name": "safeTransferFrom",
      "outputs": [],
      "stateMutability": "nonpayable",
      "type": "function"
    },
    {
      "inputs": [
        {
          "internalType": "address",
          "name": "from",
          "type": "address"
        },
        {
          "internalType": "address",
          "name": "to",
          "type": "address"
        },
        {
          "internalType": "uint256",
          "name": "tokenId",
          "type": "uint256"
        },
        {
          "internalType": "bytes",
          "name": "_data",
          "type": "bytes"
        }
      ],
      "name": "safeTransferFrom",
      "outputs": [],
      "stateMutability": "nonpayable",
      "type": "function"
    },
    {
      "inputs": [
        {
          "internalType": "address",
          "name": "operator",
          "type": "address"
        },
        {
          "internalType": "bool",
          "name": "approved",
          "type": "bool"
        }
      ],
      "name": "setApprovalForAll",
      "outputs": [],
      "stateMutability": "nonpayable",
      "type": "function"
    },
    {
      "inputs": [],
      "name": "symbol",
      "outputs": [
        {
          "internalType": "string",
          "name": "",
          "type": "string"
        }
      ],
      "stateMutability": "view",
      "type": "function",
      "constant": true
    },
    {
      "inputs": [
        {
          "internalType": "uint256",
          "name": "index",
          "type": "uint256"
        }
      ],
      "name": "tokenByIndex",
      "outputs": [
        {
          "internalType": "uint256",
          "name": "",
          "type": "uint256"
        }
      ],
      "stateMutability": "view",
      "type": "function",
      "constant": true
    },
    {
      "inputs": [
        {
          "internalType": "address",
          "name": "owner",
          "type": "address"
        },
        {
          "internalType": "uint256",
          "name": "index",
          "type": "uint256"
        }
      ],
      "name": "tokenOfOwnerByIndex",
      "outputs": [
        {
          "internalType": "uint256",
          "name": "",
          "type": "uint256"
        }
      ],
      "stateMutability": "view",
      "type": "function",
      "constant": true
    },
    {
      "inputs": [],
      "name": "totalSupply",
      "outputs": [
        {
          "internalType": "uint256",
          "name": "",
          "type": "uint256"
        }
      ],
      "stateMutability": "view",
      "type": "function",
      "constant": true
    },
    {
      "inputs": [
        {
          "internalType": "address",
          "name": "from",
          "type": "address"
        },
        {
          "internalType": "address",
          "name": "to",
          "type": "address"
        },
        {
          "internalType": "uint256",
          "name": "tokenId",
          "type": "uint256"
        }
      ],
      "name": "transferFrom",
      "outputs": [],
      "stateMutability": "nonpayable",
      "type": "function"
    },
    {
      "inputs": [
        {
          "internalType": "address",
          "name": "newOwner",
          "type": "address"
        }
      ],
      "name": "transferOwnership",
      "outputs": [],
      "stateMutability": "nonpayable",
      "type": "function"
    },
    {
      "stateMutability": "payable",
      "type": "receive",
      "payable": true
    },
    {
      "inputs": [
        {
          "internalType": "bytes4",
          "name": "interfaceId",
          "type": "bytes4"
        }
      ],
      "name": "supportsInterface",
      "outputs": [
        {
          "internalType": "bool",
          "name": "",
          "type": "bool"
        }
      ],
      "stateMutability": "view",
      "type": "function",
      "constant": true
    },
    {
      "inputs": [
        {
          "internalType": "uint256",
          "name": "tokenId",
          "type": "uint256"
        }
      ],
      "name": "tokenURI",
      "outputs": [
        {
          "internalType": "string",
          "name": "",
          "type": "string"
        }
      ],
      "stateMutability": "view",
      "type": "function",
      "constant": true
    },
    {
      "inputs": [],
      "name": "buyRicheduToken",
      "outputs": [],
      "stateMutability": "payable",
      "type": "function",
      "payable": true
    },
    {
      "inputs": [
        {
          "internalType": "uint256",
          "name": "_amount",
          "type": "uint256"
        }
      ],
      "name": "sellRicheduToken",
      "outputs": [],
      "stateMutability": "nonpayable",
      "type": "function"
    },
    {
      "inputs": [
        {
          "internalType": "string",
          "name": "_hash",
          "type": "string"
        },
        {
          "internalType": "string",
          "name": "_metadata",
          "type": "string"
        },
        {
          "internalType": "uint128",
          "name": "_mintingCost",
          "type": "uint128"
        },
        {
          "internalType": "uint256",
          "name": "userPays",
          "type": "uint256"
        }
      ],
      "name": "mintNFT",
      "outputs": [],
      "stateMutability": "nonpayable",
      "type": "function"
    },
    {
      "inputs": [
        {
          "internalType": "uint256",
          "name": "_tokenId",
          "type": "uint256"
        },
        {
          "internalType": "uint256",
          "name": "_amount",
          "type": "uint256"
        }
      ],
      "name": "setPricePutOnSale",
      "outputs": [],
      "stateMutability": "nonpayable",
      "type": "function"
    },
    {
      "inputs": [
        {
          "internalType": "uint256",
          "name": "_tokenId",
          "type": "uint256"
        }
      ],
      "name": "burnNFT",
      "outputs": [],
      "stateMutability": "nonpayable",
      "type": "function"
    },
    {
      "inputs": [
        {
          "internalType": "uint256",
          "name": "_tokenId",
          "type": "uint256"
        },
        {
          "internalType": "uint256",
          "name": "userPays",
          "type": "uint256"
        }
      ],
      "name": "buyAtSale",
      "outputs": [],
      "stateMutability": "nonpayable",
      "type": "function"
    },
    {
      "inputs": [
        {
          "internalType": "uint256",
          "name": "_tokenId",
          "type": "uint256"
        }
      ],
      "name": "stopSale",
      "outputs": [],
      "stateMutability": "nonpayable",
      "type": "function"
    },
    {
      "inputs": [
        {
          "internalType": "address",
          "name": "_giftTo",
          "type": "address"
        },
        {
          "internalType": "uint256",
          "name": "_tokenId",
          "type": "uint256"
        }
      ],
      "name": "giftNFT",
      "outputs": [],
      "stateMutability": "nonpayable",
      "type": "function"
    },
    {
      "inputs": [],
      "name": "owned_NFTs",
      "outputs": [
        {
          "internalType": "uint256[]",
          "name": "",
          "type": "uint256[]"
        }
      ],
      "stateMutability": "view",
      "type": "function",
      "constant": true
    },
    {
      "inputs": [
        {
          "internalType": "uint256",
          "name": "_tokenId",
          "type": "uint256"
        }
      ],
      "name": "NFT_details",
      "outputs": [
        {
          "components": [
            {
              "internalType": "address",
              "name": "owner",
              "type": "address"
            },
            {
              "internalType": "uint256",
              "name": "price",
              "type": "uint256"
            },
            {
              "internalType": "bool",
              "name": "onSale",
              "type": "bool"
            },
            {
              "internalType": "string",
              "name": "metadata",
              "type": "string"
            },
            {
              "internalType": "string",
              "name": "hash",
              "type": "string"
            }
          ],
          "internalType": "struct CryptoCoffee.NFT",
          "name": "",
          "type": "tuple"
        }
      ],
      "stateMutability": "view",
      "type": "function",
      "constant": true
    }
  ],
  "bytecode": "0x60806040523480156200001157600080fd5b50604051620054ac380380620054ac83398181016040528101906200003791906200029f565b6040518060400160405280600c81526020017f43727970746f436f6666656500000000000000000000000000000000000000008152506040518060400160405280600681526020017f43525054434600000000000000000000000000000000000000000000000000008152508160009080519060200190620000bb929190620001d8565b508060019080519060200190620000d4929190620001d8565b5050506000620000e9620001d060201b60201c565b905080600b60006101000a81548173ffffffffffffffffffffffffffffffffffffffff021916908373ffffffffffffffffffffffffffffffffffffffff1602179055508073ffffffffffffffffffffffffffffffffffffffff16600073ffffffffffffffffffffffffffffffffffffffff167f8be0079c531659141344cd1fd0a4f28419497f9722a3daafe3b4186f6b6457e060405160405180910390a35080600c60006101000a81548173ffffffffffffffffffffffffffffffffffffffff021916908373ffffffffffffffffffffffffffffffffffffffff1602179055505062000392565b600033905090565b828054620001e69062000313565b90600052602060002090601f0160209004810192826200020a576000855562000256565b82601f106200022557805160ff191683800117855562000256565b8280016001018555821562000256579182015b828111156200025557825182559160200191906001019062000238565b5b50905062000265919062000269565b5090565b5b80821115620002845760008160009055506001016200026a565b5090565b600081519050620002998162000378565b92915050565b600060208284031215620002b257600080fd5b6000620002c28482850162000288565b91505092915050565b6000620002d882620002f3565b9050919050565b6000620002ec82620002cb565b9050919050565b600073ffffffffffffffffffffffffffffffffffffffff82169050919050565b600060028204905060018216806200032c57607f821691505b6020821081141562000343576200034262000349565b5b50919050565b7f4e487b7100000000000000000000000000000000000000000000000000000000600052602260045260246000fd5b6200038381620002df565b81146200038f57600080fd5b50565b61510a80620003a26000396000f3fe6080604052600436106101c65760003560e01c8063715018a6116100f7578063a22cb46511610095578063f260f7b711610064578063f260f7b71461067f578063f2fde38b14610689578063f746a5ea146106b2578063f8dd1f76146106db576101cd565b8063a22cb465146105b3578063b88d4fde146105dc578063c87b56dd14610605578063e985e9c514610642576101cd565b80638da5cb5b116100d15780638da5cb5b1461050b57806395d89b41146105365780639d090f75146105615780639fab53581461058a576101cd565b8063715018a61461048e57806380740791146104a55780638b793552146104e2576101cd565b80632f745c59116101645780634f6ccce71161013e5780634f6ccce7146103ae5780635f7ed8e5146103eb5780636352211e1461041457806370a0823114610451576101cd565b80632f745c591461031d57806342842e0e1461035a5780634b834fcd14610383576101cd565b8063095ea7b3116101a0578063095ea7b31461027757806318160ddd146102a057806323b872dd146102cb5780632890e0d7146102f4576101cd565b806301ffc9a7146101d257806306fdde031461020f578063081812fc1461023a576101cd565b366101cd57005b600080fd5b3480156101de57600080fd5b506101f960048036038101906101f49190613b97565b610704565b60405161020691906148bc565b60405180910390f35b34801561021b57600080fd5b5061022461077e565b60405161023191906148d7565b60405180910390f35b34801561024657600080fd5b50610261600480360381019061025c9190613c7c565b610810565b60405161026e9190614773565b60405180910390f35b34801561028357600080fd5b5061029e60048036038101906102999190613b32565b610895565b005b3480156102ac57600080fd5b506102b56109ad565b6040516102c29190614b9b565b60405180910390f35b3480156102d757600080fd5b506102f260048036038101906102ed9190613a2c565b6109ba565b005b34801561030057600080fd5b5061031b60048036038101906103169190613c7c565b610a1a565b005b34801561032957600080fd5b50610344600480360381019061033f9190613b32565b610c24565b6040516103519190614b9b565b60405180910390f35b34801561036657600080fd5b50610381600480360381019061037c9190613a2c565b610cc9565b005b34801561038f57600080fd5b50610398610ce9565b6040516103a5919061489a565b60405180910390f35b3480156103ba57600080fd5b506103d560048036038101906103d09190613c7c565b610de3565b6040516103e29190614b9b565b60405180910390f35b3480156103f757600080fd5b50610412600480360381019061040d9190613cce565b610e7a565b005b34801561042057600080fd5b5061043b60048036038101906104369190613c7c565b611118565b6040516104489190614773565b60405180910390f35b34801561045d57600080fd5b50610478600480360381019061047391906139c7565b6111ca565b6040516104859190614b9b565b60405180910390f35b34801561049a57600080fd5b506104a3611282565b005b3480156104b157600080fd5b506104cc60048036038101906104c79190613c7c565b6113bf565b6040516104d99190614b79565b60405180910390f35b3480156104ee57600080fd5b5061050960048036038101906105049190613c7c565b6115b2565b005b34801561051757600080fd5b50610520611774565b60405161052d9190614773565b60405180910390f35b34801561054257600080fd5b5061054b61179e565b60405161055891906148d7565b60405180910390f35b34801561056d57600080fd5b5061058860048036038101906105839190613cce565b611830565b005b34801561059657600080fd5b506105b160048036038101906105ac9190613be9565b6118d2565b005b3480156105bf57600080fd5b506105da60048036038101906105d59190613af6565b611b5b565b005b3480156105e857600080fd5b5061060360048036038101906105fe9190613a7b565b611cdc565b005b34801561061157600080fd5b5061062c60048036038101906106279190613c7c565b611d3e565b60405161063991906148d7565b60405180910390f35b34801561064e57600080fd5b50610669600480360381019061066491906139f0565b611d50565b60405161067691906148bc565b60405180910390f35b610687611de4565b005b34801561069557600080fd5b506106b060048036038101906106ab91906139c7565b611f5a565b005b3480156106be57600080fd5b506106d960048036038101906106d49190613b32565b612106565b005b3480156106e757600080fd5b5061070260048036038101906106fd9190613c7c565b6121cc565b005b60007f780e9d63000000000000000000000000000000000000000000000000000000007bffffffffffffffffffffffffffffffffffffffffffffffffffffffff1916827bffffffffffffffffffffffffffffffffffffffffffffffffffffffff1916148061077757506107768261221c565b5b9050919050565b60606000805461078d90614ee8565b80601f01602080910402602001604051908101604052809291908181526020018280546107b990614ee8565b80156108065780601f106107db57610100808354040283529160200191610806565b820191906000526020600020905b8154815290600101906020018083116107e957829003601f168201915b5050505050905090565b600061081b82612296565b61085a576040517f08c379a000000000000000000000000000000000000000000000000000000000815260040161085190614a99565b60405180910390fd5b6004600083815260200190815260200160002060009054906101000a900473ffffffffffffffffffffffffffffffffffffffff169050919050565b60006108a082611118565b90508073ffffffffffffffffffffffffffffffffffffffff168373ffffffffffffffffffffffffffffffffffffffff161415610911576040517f08c379a000000000000000000000000000000000000000000000000000000000815260040161090890614b19565b60405180910390fd5b8073ffffffffffffffffffffffffffffffffffffffff16610930612302565b73ffffffffffffffffffffffffffffffffffffffff16148061095f575061095e81610959612302565b611d50565b5b61099e576040517f08c379a0000000000000000000000000000000000000000000000000000000008152600401610995906149d9565b60405180910390fd5b6109a8838361230a565b505050565b6000600880549050905090565b6109cb6109c5612302565b826123c3565b610a0a576040517f08c379a0000000000000000000000000000000000000000000000000000000008152600401610a0190614b39565b60405180910390fd5b610a158383836124a1565b505050565b80610a2481612296565b610a2d57600080fd5b610a3733826123c3565b610a4057600080fd5b60011515600f600084815260200190815260200160002060020160009054906101000a900460ff1615151415610a7557600080fd5b600e600f6000848152602001908152602001600020600401604051610a9a919061475c565b908152602001604051809103902060006101000a81549060ff0219169055600f6000838152602001908152602001600020600080820160006101000a81549073ffffffffffffffffffffffffffffffffffffffff021916905560018201600090556002820160006101000a81549060ff0219169055600382016000610b1f9190613725565b600482016000610b2f9190613725565b50506000601060008481526020019081526020016000205490506000600482610b589190614d9f565b82610b639190614dd0565b9050600c60009054906101000a900473ffffffffffffffffffffffffffffffffffffffff1673ffffffffffffffffffffffffffffffffffffffff1663a9059cbb33836040518363ffffffff1660e01b8152600401610bc2929190614871565b602060405180830381600087803b158015610bdc57600080fd5b505af1158015610bf0573d6000803e3d6000fd5b505050506040513d601f19601f82011682018060405250810190610c149190613b6e565b50610c1e846126fd565b50505050565b6000610c2f836111ca565b8210610c70576040517f08c379a0000000000000000000000000000000000000000000000000000000008152600401610c67906148f9565b60405180910390fd5b600660008473ffffffffffffffffffffffffffffffffffffffff1673ffffffffffffffffffffffffffffffffffffffff168152602001908152602001600020600083815260200190815260200160002054905092915050565b610ce483838360405180602001604052806000815250611cdc565b505050565b60606000610cf6336111ca565b67ffffffffffffffff811115610d35577f4e487b7100000000000000000000000000000000000000000000000000000000600052604160045260246000fd5b604051908082528060200260200182016040528015610d635781602001602082028036833780820191505090505b50905060005b610d72336111ca565b811015610ddb57610d833382610c24565b828281518110610dbc577f4e487b7100000000000000000000000000000000000000000000000000000000600052603260045260246000fd5b6020026020010181815250508080610dd390614f1a565b915050610d69565b819250505090565b6000610ded6109ad565b8210610e2e576040517f08c379a0000000000000000000000000000000000000000000000000000000008152600401610e2590614b59565b60405180910390fd5b60088281548110610e68577f4e487b7100000000000000000000000000000000000000000000000000000000600052603260045260246000fd5b90600052602060002001549050919050565b6000600f600084815260200190815260200160002090508060020160009054906101000a900460ff16610eac57600080fd5b81816001015414610ebc57600080fd5b610ec583612709565b600081600101541115610fad57600c60009054906101000a900473ffffffffffffffffffffffffffffffffffffffff1673ffffffffffffffffffffffffffffffffffffffff166323b872dd338360000160009054906101000a900473ffffffffffffffffffffffffffffffffffffffff1684600101546040518463ffffffff1660e01b8152600401610f59939291906147ee565b602060405180830381600087803b158015610f7357600080fd5b505af1158015610f87573d6000803e3d6000fd5b505050506040513d601f19601f82011682018060405250810190610fab9190613b6e565b505b7f9f2881bde82d4b6e9c19bec262dbbdba7266ff214c4c822aa94035f21b263f3383826001015433604051610fe493929190614bdf565b60405180910390a161102d600f600085815260200190815260200160002060000160009054906101000a900473ffffffffffffffffffffffffffffffffffffffff1633856124a1565b823373ffffffffffffffffffffffffffffffffffffffff16600f600086815260200190815260200160002060000160009054906101000a900473ffffffffffffffffffffffffffffffffffffffff1673ffffffffffffffffffffffffffffffffffffffff167fddf252ad1be2c89b69c2b068fc378daa952ba7f163c4a11628f55a4df523b3ef60405160405180910390a433600f600085815260200190815260200160002060000160006101000a81548173ffffffffffffffffffffffffffffffffffffffff021916908373ffffffffffffffffffffffffffffffffffffffff160217905550505050565b6000806002600084815260200190815260200160002060009054906101000a900473ffffffffffffffffffffffffffffffffffffffff169050600073ffffffffffffffffffffffffffffffffffffffff168173ffffffffffffffffffffffffffffffffffffffff1614156111c1576040517f08c379a00000000000000000000000000000000000000000000000000000000081526004016111b890614a19565b60405180910390fd5b80915050919050565b60008073ffffffffffffffffffffffffffffffffffffffff168273ffffffffffffffffffffffffffffffffffffffff16141561123b576040517f08c379a0000000000000000000000000000000000000000000000000000000008152600401611232906149f9565b60405180910390fd5b600360008373ffffffffffffffffffffffffffffffffffffffff1673ffffffffffffffffffffffffffffffffffffffff168152602001908152602001600020549050919050565b61128a612302565b73ffffffffffffffffffffffffffffffffffffffff166112a8611774565b73ffffffffffffffffffffffffffffffffffffffff16146112fe576040517f08c379a00000000000000000000000000000000000000000000000000000000081526004016112f590614ab9565b60405180910390fd5b600073ffffffffffffffffffffffffffffffffffffffff16600b60009054906101000a900473ffffffffffffffffffffffffffffffffffffffff1673ffffffffffffffffffffffffffffffffffffffff167f8be0079c531659141344cd1fd0a4f28419497f9722a3daafe3b4186f6b6457e060405160405180910390a36000600b60006101000a81548173ffffffffffffffffffffffffffffffffffffffff021916908373ffffffffffffffffffffffffffffffffffffffff160217905550565b6113c7613765565b816113d181612296565b6113da57600080fd5b6113e433826123c3565b6113ed57600080fd5b600f60008481526020019081526020016000206040518060a00160405290816000820160009054906101000a900473ffffffffffffffffffffffffffffffffffffffff1673ffffffffffffffffffffffffffffffffffffffff1673ffffffffffffffffffffffffffffffffffffffff168152602001600182015481526020016002820160009054906101000a900460ff1615151515815260200160038201805461149690614ee8565b80601f01602080910402602001604051908101604052809291908181526020018280546114c290614ee8565b801561150f5780601f106114e45761010080835404028352916020019161150f565b820191906000526020600020905b8154815290600101906020018083116114f257829003601f168201915b5050505050815260200160048201805461152890614ee8565b80601f016020809104026020016040519081016040528092919081815260200182805461155490614ee8565b80156115a15780601f10611576576101008083540402835291602001916115a1565b820191906000526020600020905b81548152906001019060200180831161158457829003601f168201915b505050505081525050915050919050565b600081116115bf57600080fd5b80600c60009054906101000a900473ffffffffffffffffffffffffffffffffffffffff1673ffffffffffffffffffffffffffffffffffffffff1663dd62ed3e33306040518363ffffffff1660e01b815260040161161d92919061478e565b60206040518083038186803b15801561163557600080fd5b505afa158015611649573d6000803e3d6000fd5b505050506040513d601f19601f8201168201806040525081019061166d9190613ca5565b101561167857600080fd5b600c60009054906101000a900473ffffffffffffffffffffffffffffffffffffffff1673ffffffffffffffffffffffffffffffffffffffff166323b872dd3330846040518463ffffffff1660e01b81526004016116d7939291906147ee565b602060405180830381600087803b1580156116f157600080fd5b505af1158015611705573d6000803e3d6000fd5b505050506040513d601f19601f820116820180604052508101906117299190613b6e565b503373ffffffffffffffffffffffffffffffffffffffff166108fc829081150290604051600060405180830381858888f19350505050158015611770573d6000803e3d6000fd5b5050565b6000600b60009054906101000a900473ffffffffffffffffffffffffffffffffffffffff16905090565b6060600180546117ad90614ee8565b80601f01602080910402602001604051908101604052809291908181526020018280546117d990614ee8565b80156118265780601f106117fb57610100808354040283529160200191611826565b820191906000526020600020905b81548152906001019060200180831161180957829003601f168201915b5050505050905090565b8161183a81612296565b61184357600080fd5b61184d33826123c3565b61185657600080fd5b6000600f6000858152602001908152602001600020905082816001018190555060018160020160006101000a81548160ff0219169083151502179055507f9eaf9cce24bc6020f5e633cd3134f3ccd322f7b244afcfc4586f12e2b4a1e98684846040516118c4929190614bb6565b60405180910390a150505050565b60011515600e856040516118e69190614721565b908152602001604051809103902060009054906101000a900460ff161515141561190f57600080fd5b80826fffffffffffffffffffffffffffffffff161461192d57600080fd5b6001600e8560405161193f9190614721565b908152602001604051809103902060006101000a81548160ff02191690831515021790555061196e600d612732565b600061197a600d612748565b90506119863382612756565b6119908185612774565b6000600f60008381526020019081526020016000209050848160030190805190602001906119bf9291906137ac565b50858160040190805190602001906119d89291906137ac565b50836fffffffffffffffffffffffffffffffff166010600084815260200190815260200160002081905550600c60009054906101000a900473ffffffffffffffffffffffffffffffffffffffff1673ffffffffffffffffffffffffffffffffffffffff166323b872dd3330876040518463ffffffff1660e01b8152600401611a62939291906147b7565b602060405180830381600087803b158015611a7c57600080fd5b505af1158015611a90573d6000803e3d6000fd5b505050506040513d601f19601f82011682018060405250810190611ab49190613b6e565b50338160000160006101000a81548173ffffffffffffffffffffffffffffffffffffffff021916908373ffffffffffffffffffffffffffffffffffffffff160217905550813373ffffffffffffffffffffffffffffffffffffffff163073ffffffffffffffffffffffffffffffffffffffff167fddf252ad1be2c89b69c2b068fc378daa952ba7f163c4a11628f55a4df523b3ef60405160405180910390a4505050505050565b611b63612302565b73ffffffffffffffffffffffffffffffffffffffff168273ffffffffffffffffffffffffffffffffffffffff161415611bd1576040517f08c379a0000000000000000000000000000000000000000000000000000000008152600401611bc890614999565b60405180910390fd5b8060056000611bde612302565b73ffffffffffffffffffffffffffffffffffffffff1673ffffffffffffffffffffffffffffffffffffffff16815260200190815260200160002060008473ffffffffffffffffffffffffffffffffffffffff1673ffffffffffffffffffffffffffffffffffffffff16815260200190815260200160002060006101000a81548160ff0219169083151502179055508173ffffffffffffffffffffffffffffffffffffffff16611c8b612302565b73ffffffffffffffffffffffffffffffffffffffff167f17307eab39ab6107e8899845ad3d59bd9653f200f220920489ca2b5937696c3183604051611cd091906148bc565b60405180910390a35050565b611ced611ce7612302565b836123c3565b611d2c576040517f08c379a0000000000000000000000000000000000000000000000000000000008152600401611d2390614b39565b60405180910390fd5b611d38848484846127e8565b50505050565b6060611d4982612844565b9050919050565b6000600560008473ffffffffffffffffffffffffffffffffffffffff1673ffffffffffffffffffffffffffffffffffffffff16815260200190815260200160002060008373ffffffffffffffffffffffffffffffffffffffff1673ffffffffffffffffffffffffffffffffffffffff16815260200190815260200160002060009054906101000a900460ff16905092915050565b60003411611df157600080fd5b34600c60009054906101000a900473ffffffffffffffffffffffffffffffffffffffff1673ffffffffffffffffffffffffffffffffffffffff166370a08231306040518263ffffffff1660e01b8152600401611e4d9190614773565b60206040518083038186803b158015611e6557600080fd5b505afa158015611e79573d6000803e3d6000fd5b505050506040513d601f19601f82011682018060405250810190611e9d9190613ca5565b1015611ea857600080fd5b600c60009054906101000a900473ffffffffffffffffffffffffffffffffffffffff1673ffffffffffffffffffffffffffffffffffffffff1663a9059cbb33346040518363ffffffff1660e01b8152600401611f05929190614871565b602060405180830381600087803b158015611f1f57600080fd5b505af1158015611f33573d6000803e3d6000fd5b505050506040513d601f19601f82011682018060405250810190611f579190613b6e565b50565b611f62612302565b73ffffffffffffffffffffffffffffffffffffffff16611f80611774565b73ffffffffffffffffffffffffffffffffffffffff1614611fd6576040517f08c379a0000000000000000000000000000000000000000000000000000000008152600401611fcd90614ab9565b60405180910390fd5b600073ffffffffffffffffffffffffffffffffffffffff168173ffffffffffffffffffffffffffffffffffffffff161415612046576040517f08c379a000000000000000000000000000000000000000000000000000000000815260040161203d90614939565b60405180910390fd5b8073ffffffffffffffffffffffffffffffffffffffff16600b60009054906101000a900473ffffffffffffffffffffffffffffffffffffffff1673ffffffffffffffffffffffffffffffffffffffff167f8be0079c531659141344cd1fd0a4f28419497f9722a3daafe3b4186f6b6457e060405160405180910390a380600b60006101000a81548173ffffffffffffffffffffffffffffffffffffffff021916908373ffffffffffffffffffffffffffffffffffffffff16021790555050565b8061211081612296565b61211957600080fd5b61212333826123c3565b61212c57600080fd5b60011515600f600084815260200190815260200160002060020160009054906101000a900460ff161515141561216157600080fd5b61216c338484610cc9565b818373ffffffffffffffffffffffffffffffffffffffff163373ffffffffffffffffffffffffffffffffffffffff167fddf252ad1be2c89b69c2b068fc378daa952ba7f163c4a11628f55a4df523b3ef60405160405180910390a4505050565b806121d681612296565b6121df57600080fd5b6121e933826123c3565b6121f257600080fd5b600f600083815260200190815260200160002060020160006101000a81549060ff02191690555050565b60007f780e9d63000000000000000000000000000000000000000000000000000000007bffffffffffffffffffffffffffffffffffffffffffffffffffffffff1916827bffffffffffffffffffffffffffffffffffffffffffffffffffffffff1916148061228f575061228e82612996565b5b9050919050565b60008073ffffffffffffffffffffffffffffffffffffffff166002600084815260200190815260200160002060009054906101000a900473ffffffffffffffffffffffffffffffffffffffff1673ffffffffffffffffffffffffffffffffffffffff1614159050919050565b600033905090565b816004600083815260200190815260200160002060006101000a81548173ffffffffffffffffffffffffffffffffffffffff021916908373ffffffffffffffffffffffffffffffffffffffff160217905550808273ffffffffffffffffffffffffffffffffffffffff1661237d83611118565b73ffffffffffffffffffffffffffffffffffffffff167f8c5be1e5ebec7d5bd14f71427d1e84f3dd0314c0f7b2291e5b200ac8c7c3b92560405160405180910390a45050565b60006123ce82612296565b61240d576040517f08c379a0000000000000000000000000000000000000000000000000000000008152600401612404906149b9565b60405180910390fd5b600061241883611118565b90508073ffffffffffffffffffffffffffffffffffffffff168473ffffffffffffffffffffffffffffffffffffffff16148061248757508373ffffffffffffffffffffffffffffffffffffffff1661246f84610810565b73ffffffffffffffffffffffffffffffffffffffff16145b8061249857506124978185611d50565b5b91505092915050565b8273ffffffffffffffffffffffffffffffffffffffff166124c182611118565b73ffffffffffffffffffffffffffffffffffffffff1614612517576040517f08c379a000000000000000000000000000000000000000000000000000000000815260040161250e90614ad9565b60405180910390fd5b600073ffffffffffffffffffffffffffffffffffffffff168273ffffffffffffffffffffffffffffffffffffffff161415612587576040517f08c379a000000000000000000000000000000000000000000000000000000000815260040161257e90614979565b60405180910390fd5b612592838383612a78565b61259d60008261230a565b6001600360008573ffffffffffffffffffffffffffffffffffffffff1673ffffffffffffffffffffffffffffffffffffffff16815260200190815260200160002060008282546125ed9190614dd0565b925050819055506001600360008473ffffffffffffffffffffffffffffffffffffffff1673ffffffffffffffffffffffffffffffffffffffff16815260200190815260200160002060008282546126449190614d49565b92505081905550816002600083815260200190815260200160002060006101000a81548173ffffffffffffffffffffffffffffffffffffffff021916908373ffffffffffffffffffffffffffffffffffffffff160217905550808273ffffffffffffffffffffffffffffffffffffffff168473ffffffffffffffffffffffffffffffffffffffff167fddf252ad1be2c89b69c2b068fc378daa952ba7f163c4a11628f55a4df523b3ef60405160405180910390a4505050565b61270681612a88565b50565b600f600082815260200190815260200160002060020160006101000a81549060ff021916905550565b6001816000016000828254019250508190555050565b600081600001549050919050565b612770828260405180602001604052806000815250612adb565b5050565b61277d82612296565b6127bc576040517f08c379a00000000000000000000000000000000000000000000000000000000081526004016127b390614a39565b60405180910390fd5b80600a600084815260200190815260200160002090805190602001906127e39291906137ac565b505050565b6127f38484846124a1565b6127ff84848484612b36565b61283e576040517f08c379a000000000000000000000000000000000000000000000000000000000815260040161283590614919565b60405180910390fd5b50505050565b606061284f82612296565b61288e576040517f08c379a000000000000000000000000000000000000000000000000000000000815260040161288590614a79565b60405180910390fd5b6000600a600084815260200190815260200160002080546128ae90614ee8565b80601f01602080910402602001604051908101604052809291908181526020018280546128da90614ee8565b80156129275780601f106128fc57610100808354040283529160200191612927565b820191906000526020600020905b81548152906001019060200180831161290a57829003601f168201915b505050505090506000612938612ccd565b905060008151141561294e578192505050612991565b60008251111561298357808260405160200161296b929190614738565b60405160208183030381529060405292505050612991565b61298c84612ce4565b925050505b919050565b60007f80ac58cd000000000000000000000000000000000000000000000000000000007bffffffffffffffffffffffffffffffffffffffffffffffffffffffff1916827bffffffffffffffffffffffffffffffffffffffffffffffffffffffff19161480612a6157507f5b5e139f000000000000000000000000000000000000000000000000000000007bffffffffffffffffffffffffffffffffffffffffffffffffffffffff1916827bffffffffffffffffffffffffffffffffffffffffffffffffffffffff1916145b80612a715750612a7082612d8b565b5b9050919050565b612a83838383612df5565b505050565b612a9181612f09565b6000600a60008381526020019081526020016000208054612ab190614ee8565b905014612ad857600a60008281526020019081526020016000206000612ad79190613725565b5b50565b612ae5838361301a565b612af26000848484612b36565b612b31576040517f08c379a0000000000000000000000000000000000000000000000000000000008152600401612b2890614919565b60405180910390fd5b505050565b6000612b578473ffffffffffffffffffffffffffffffffffffffff166131e8565b15612cc0578373ffffffffffffffffffffffffffffffffffffffff1663150b7a02612b80612302565b8786866040518563ffffffff1660e01b8152600401612ba29493929190614825565b602060405180830381600087803b158015612bbc57600080fd5b505af1925050508015612bed57506040513d601f19601f82011682018060405250810190612bea9190613bc0565b60015b612c70573d8060008114612c1d576040519150601f19603f3d011682016040523d82523d6000602084013e612c22565b606091505b50600081511415612c68576040517f08c379a0000000000000000000000000000000000000000000000000000000008152600401612c5f90614919565b60405180910390fd5b805181602001fd5b63150b7a0260e01b7bffffffffffffffffffffffffffffffffffffffffffffffffffffffff1916817bffffffffffffffffffffffffffffffffffffffffffffffffffffffff191614915050612cc5565b600190505b949350505050565b606060405180602001604052806000815250905090565b6060612cef82612296565b612d2e576040517f08c379a0000000000000000000000000000000000000000000000000000000008152600401612d2590614af9565b60405180910390fd5b6000612d38612ccd565b90506000815111612d585760405180602001604052806000815250612d83565b80612d62846131fb565b604051602001612d73929190614738565b6040516020818303038152906040525b915050919050565b60007f01ffc9a7000000000000000000000000000000000000000000000000000000007bffffffffffffffffffffffffffffffffffffffffffffffffffffffff1916827bffffffffffffffffffffffffffffffffffffffffffffffffffffffff1916149050919050565b612e008383836133a8565b600073ffffffffffffffffffffffffffffffffffffffff168373ffffffffffffffffffffffffffffffffffffffff161415612e4357612e3e816133ad565b612e82565b8173ffffffffffffffffffffffffffffffffffffffff168373ffffffffffffffffffffffffffffffffffffffff1614612e8157612e8083826133f6565b5b5b600073ffffffffffffffffffffffffffffffffffffffff168273ffffffffffffffffffffffffffffffffffffffff161415612ec557612ec081613563565b612f04565b8273ffffffffffffffffffffffffffffffffffffffff168273ffffffffffffffffffffffffffffffffffffffff1614612f0357612f0282826136a6565b5b5b505050565b6000612f1482611118565b9050612f2281600084612a78565b612f2d60008361230a565b6001600360008373ffffffffffffffffffffffffffffffffffffffff1673ffffffffffffffffffffffffffffffffffffffff1681526020019081526020016000206000828254612f7d9190614dd0565b925050819055506002600083815260200190815260200160002060006101000a81549073ffffffffffffffffffffffffffffffffffffffff021916905581600073ffffffffffffffffffffffffffffffffffffffff168273ffffffffffffffffffffffffffffffffffffffff167fddf252ad1be2c89b69c2b068fc378daa952ba7f163c4a11628f55a4df523b3ef60405160405180910390a45050565b600073ffffffffffffffffffffffffffffffffffffffff168273ffffffffffffffffffffffffffffffffffffffff16141561308a576040517f08c379a000000000000000000000000000000000000000000000000000000000815260040161308190614a59565b60405180910390fd5b61309381612296565b156130d3576040517f08c379a00000000000000000000000000000000000000000000000000000000081526004016130ca90614959565b60405180910390fd5b6130df60008383612a78565b6001600360008473ffffffffffffffffffffffffffffffffffffffff1673ffffffffffffffffffffffffffffffffffffffff168152602001908152602001600020600082825461312f9190614d49565b92505081905550816002600083815260200190815260200160002060006101000a81548173ffffffffffffffffffffffffffffffffffffffff021916908373ffffffffffffffffffffffffffffffffffffffff160217905550808273ffffffffffffffffffffffffffffffffffffffff16600073ffffffffffffffffffffffffffffffffffffffff167fddf252ad1be2c89b69c2b068fc378daa952ba7f163c4a11628f55a4df523b3ef60405160405180910390a45050565b600080823b905060008111915050919050565b60606000821415613243576040518060400160405280600181526020017f300000000000000000000000000000000000000000000000000000000000000081525090506133a3565b600082905060005b6000821461327557808061325e90614f1a565b915050600a8261326e9190614d9f565b915061324b565b60008167ffffffffffffffff8111156132b7577f4e487b7100000000000000000000000000000000000000000000000000000000600052604160045260246000fd5b6040519080825280601f01601f1916602001820160405280156132e95781602001600182028036833780820191505090505b5090505b6000851461339c576001826133029190614dd0565b9150600a856133119190614f63565b603061331d9190614d49565b60f81b818381518110613359577f4e487b7100000000000000000000000000000000000000000000000000000000600052603260045260246000fd5b60200101907effffffffffffffffffffffffffffffffffffffffffffffffffffffffffffff1916908160001a905350600a856133959190614d9f565b94506132ed565b8093505050505b919050565b505050565b6008805490506009600083815260200190815260200160002081905550600881908060018154018082558091505060019003906000526020600020016000909190919091505550565b60006001613403846111ca565b61340d9190614dd0565b90506000600760008481526020019081526020016000205490508181146134f2576000600660008673ffffffffffffffffffffffffffffffffffffffff1673ffffffffffffffffffffffffffffffffffffffff168152602001908152602001600020600084815260200190815260200160002054905080600660008773ffffffffffffffffffffffffffffffffffffffff1673ffffffffffffffffffffffffffffffffffffffff168152602001908152602001600020600084815260200190815260200160002081905550816007600083815260200190815260200160002081905550505b6007600084815260200190815260200160002060009055600660008573ffffffffffffffffffffffffffffffffffffffff1673ffffffffffffffffffffffffffffffffffffffff16815260200190815260200160002060008381526020019081526020016000206000905550505050565b600060016008805490506135779190614dd0565b90506000600960008481526020019081526020016000205490506000600883815481106135cd577f4e487b7100000000000000000000000000000000000000000000000000000000600052603260045260246000fd5b906000526020600020015490508060088381548110613615577f4e487b7100000000000000000000000000000000000000000000000000000000600052603260045260246000fd5b90600052602060002001819055508160096000838152602001908152602001600020819055506009600085815260200190815260200160002060009055600880548061368a577f4e487b7100000000000000000000000000000000000000000000000000000000600052603160045260246000fd5b6001900381819060005260206000200160009055905550505050565b60006136b1836111ca565b905081600660008573ffffffffffffffffffffffffffffffffffffffff1673ffffffffffffffffffffffffffffffffffffffff168152602001908152602001600020600083815260200190815260200160002081905550806007600084815260200190815260200160002081905550505050565b50805461373190614ee8565b6000825580601f106137435750613762565b601f0160209004906000526020600020908101906137619190613832565b5b50565b6040518060a00160405280600073ffffffffffffffffffffffffffffffffffffffff1681526020016000815260200160001515815260200160608152602001606081525090565b8280546137b890614ee8565b90600052602060002090601f0160209004810192826137da5760008555613821565b82601f106137f357805160ff1916838001178555613821565b82800160010185558215613821579182015b82811115613820578251825591602001919060010190613805565b5b50905061382e9190613832565b5090565b5b8082111561384b576000816000905550600101613833565b5090565b600061386261385d84614c47565b614c16565b90508281526020810184848401111561387a57600080fd5b613885848285614ea6565b509392505050565b60006138a061389b84614c77565b614c16565b9050828152602081018484840111156138b857600080fd5b6138c3848285614ea6565b509392505050565b6000813590506138da81615061565b92915050565b6000813590506138ef81615078565b92915050565b60008151905061390481615078565b92915050565b6000813590506139198161508f565b92915050565b60008151905061392e8161508f565b92915050565b600082601f83011261394557600080fd5b813561395584826020860161384f565b91505092915050565b600082601f83011261396f57600080fd5b813561397f84826020860161388d565b91505092915050565b600081359050613997816150a6565b92915050565b6000813590506139ac816150bd565b92915050565b6000815190506139c1816150bd565b92915050565b6000602082840312156139d957600080fd5b60006139e7848285016138cb565b91505092915050565b60008060408385031215613a0357600080fd5b6000613a11858286016138cb565b9250506020613a22858286016138cb565b9150509250929050565b600080600060608486031215613a4157600080fd5b6000613a4f868287016138cb565b9350506020613a60868287016138cb565b9250506040613a718682870161399d565b9150509250925092565b60008060008060808587031215613a9157600080fd5b6000613a9f878288016138cb565b9450506020613ab0878288016138cb565b9350506040613ac18782880161399d565b925050606085013567ffffffffffffffff811115613ade57600080fd5b613aea87828801613934565b91505092959194509250565b60008060408385031215613b0957600080fd5b6000613b17858286016138cb565b9250506020613b28858286016138e0565b9150509250929050565b60008060408385031215613b4557600080fd5b6000613b53858286016138cb565b9250506020613b648582860161399d565b9150509250929050565b600060208284031215613b8057600080fd5b6000613b8e848285016138f5565b91505092915050565b600060208284031215613ba957600080fd5b6000613bb78482850161390a565b91505092915050565b600060208284031215613bd257600080fd5b6000613be08482850161391f565b91505092915050565b60008060008060808587031215613bff57600080fd5b600085013567ffffffffffffffff811115613c1957600080fd5b613c258782880161395e565b945050602085013567ffffffffffffffff811115613c4257600080fd5b613c4e8782880161395e565b9350506040613c5f87828801613988565b9250506060613c708782880161399d565b91505092959194509250565b600060208284031215613c8e57600080fd5b6000613c9c8482850161399d565b91505092915050565b600060208284031215613cb757600080fd5b6000613cc5848285016139b2565b91505092915050565b60008060408385031215613ce157600080fd5b6000613cef8582860161399d565b9250506020613d008582860161399d565b9150509250929050565b6000613d168383614703565b60208301905092915050565b613d2b81614e04565b82525050565b613d3a81614e04565b82525050565b6000613d4b82614ccc565b613d558185614cfa565b9350613d6083614ca7565b8060005b83811015613d91578151613d788882613d0a565b9750613d8383614ced565b925050600181019050613d64565b5085935050505092915050565b613da781614e16565b82525050565b613db681614e16565b82525050565b6000613dc782614cd7565b613dd18185614d0b565b9350613de1818560208601614eb5565b613dea81615050565b840191505092915050565b6000613e0082614ce2565b613e0a8185614d1c565b9350613e1a818560208601614eb5565b613e2381615050565b840191505092915050565b6000613e3982614ce2565b613e438185614d2d565b9350613e53818560208601614eb5565b613e5c81615050565b840191505092915050565b6000613e7282614ce2565b613e7c8185614d3e565b9350613e8c818560208601614eb5565b80840191505092915050565b60008154613ea581614ee8565b613eaf8186614d3e565b94506001821660008114613eca5760018114613edb57613f0e565b60ff19831686528186019350613f0e565b613ee485614cb7565b60005b83811015613f0657815481890152600182019150602081019050613ee7565b838801955050505b50505092915050565b6000613f24602b83614d2d565b91507f455243373231456e756d657261626c653a206f776e657220696e646578206f7560008301527f74206f6620626f756e64730000000000000000000000000000000000000000006020830152604082019050919050565b6000613f8a603283614d2d565b91507f4552433732313a207472616e7366657220746f206e6f6e20455243373231526560008301527f63656976657220696d706c656d656e74657200000000000000000000000000006020830152604082019050919050565b6000613ff0602683614d2d565b91507f4f776e61626c653a206e6577206f776e657220697320746865207a65726f206160008301527f64647265737300000000000000000000000000000000000000000000000000006020830152604082019050919050565b6000614056601c83614d2d565b91507f4552433732313a20746f6b656e20616c7265616479206d696e746564000000006000830152602082019050919050565b6000614096602483614d2d565b91507f4552433732313a207472616e7366657220746f20746865207a65726f2061646460008301527f72657373000000000000000000000000000000000000000000000000000000006020830152604082019050919050565b60006140fc601983614d2d565b91507f4552433732313a20617070726f766520746f2063616c6c6572000000000000006000830152602082019050919050565b600061413c602c83614d2d565b91507f4552433732313a206f70657261746f7220717565727920666f72206e6f6e657860008301527f697374656e7420746f6b656e00000000000000000000000000000000000000006020830152604082019050919050565b60006141a2603883614d2d565b91507f4552433732313a20617070726f76652063616c6c6572206973206e6f74206f7760008301527f6e6572206e6f7220617070726f76656420666f7220616c6c00000000000000006020830152604082019050919050565b6000614208602a83614d2d565b91507f4552433732313a2062616c616e636520717565727920666f7220746865207a6560008301527f726f2061646472657373000000000000000000000000000000000000000000006020830152604082019050919050565b600061426e602983614d2d565b91507f4552433732313a206f776e657220717565727920666f72206e6f6e657869737460008301527f656e7420746f6b656e00000000000000000000000000000000000000000000006020830152604082019050919050565b60006142d4602e83614d2d565b91507f45524337323155524953746f726167653a2055524920736574206f66206e6f6e60008301527f6578697374656e7420746f6b656e0000000000000000000000000000000000006020830152604082019050919050565b600061433a602083614d2d565b91507f4552433732313a206d696e7420746f20746865207a65726f20616464726573736000830152602082019050919050565b600061437a603183614d2d565b91507f45524337323155524953746f726167653a2055524920717565727920666f722060008301527f6e6f6e6578697374656e7420746f6b656e0000000000000000000000000000006020830152604082019050919050565b60006143e0602c83614d2d565b91507f4552433732313a20617070726f76656420717565727920666f72206e6f6e657860008301527f697374656e7420746f6b656e00000000000000000000000000000000000000006020830152604082019050919050565b6000614446602083614d2d565b91507f4f776e61626c653a2063616c6c6572206973206e6f7420746865206f776e65726000830152602082019050919050565b6000614486602983614d2d565b91507f4552433732313a207472616e73666572206f6620746f6b656e2074686174206960008301527f73206e6f74206f776e00000000000000000000000000000000000000000000006020830152604082019050919050565b60006144ec602f83614d2d565b91507f4552433732314d657461646174613a2055524920717565727920666f72206e6f60008301527f6e6578697374656e7420746f6b656e00000000000000000000000000000000006020830152604082019050919050565b6000614552602183614d2d565b91507f4552433732313a20617070726f76616c20746f2063757272656e74206f776e6560008301527f72000000000000000000000000000000000000000000000000000000000000006020830152604082019050919050565b60006145b8603183614d2d565b91507f4552433732313a207472616e736665722063616c6c6572206973206e6f74206f60008301527f776e6572206e6f7220617070726f7665640000000000000000000000000000006020830152604082019050919050565b600061461e602c83614d2d565b91507f455243373231456e756d657261626c653a20676c6f62616c20696e646578206f60008301527f7574206f6620626f756e647300000000000000000000000000000000000000006020830152604082019050919050565b600060a08301600083015161468f6000860182613d22565b5060208301516146a26020860182614703565b5060408301516146b56040860182613d9e565b50606083015184820360608601526146cd8282613df5565b915050608083015184820360808601526146e78282613df5565b9150508091505092915050565b6146fd81614e94565b82525050565b61470c81614e8a565b82525050565b61471b81614e8a565b82525050565b600061472d8284613e67565b915081905092915050565b60006147448285613e67565b91506147508284613e67565b91508190509392505050565b60006147688284613e98565b915081905092915050565b60006020820190506147886000830184613d31565b92915050565b60006040820190506147a36000830185613d31565b6147b06020830184613d31565b9392505050565b60006060820190506147cc6000830186613d31565b6147d96020830185613d31565b6147e660408301846146f4565b949350505050565b60006060820190506148036000830186613d31565b6148106020830185613d31565b61481d6040830184614712565b949350505050565b600060808201905061483a6000830187613d31565b6148476020830186613d31565b6148546040830185614712565b81810360608301526148668184613dbc565b905095945050505050565b60006040820190506148866000830185613d31565b6148936020830184614712565b9392505050565b600060208201905081810360008301526148b48184613d40565b905092915050565b60006020820190506148d16000830184613dad565b92915050565b600060208201905081810360008301526148f18184613e2e565b905092915050565b6000602082019050818103600083015261491281613f17565b9050919050565b6000602082019050818103600083015261493281613f7d565b9050919050565b6000602082019050818103600083015261495281613fe3565b9050919050565b6000602082019050818103600083015261497281614049565b9050919050565b6000602082019050818103600083015261499281614089565b9050919050565b600060208201905081810360008301526149b2816140ef565b9050919050565b600060208201905081810360008301526149d28161412f565b9050919050565b600060208201905081810360008301526149f281614195565b9050919050565b60006020820190508181036000830152614a12816141fb565b9050919050565b60006020820190508181036000830152614a3281614261565b9050919050565b60006020820190508181036000830152614a52816142c7565b9050919050565b60006020820190508181036000830152614a728161432d565b9050919050565b60006020820190508181036000830152614a928161436d565b9050919050565b60006020820190508181036000830152614ab2816143d3565b9050919050565b60006020820190508181036000830152614ad281614439565b9050919050565b60006020820190508181036000830152614af281614479565b9050919050565b60006020820190508181036000830152614b12816144df565b9050919050565b60006020820190508181036000830152614b3281614545565b9050919050565b60006020820190508181036000830152614b52816145ab565b9050919050565b60006020820190508181036000830152614b7281614611565b9050919050565b60006020820190508181036000830152614b938184614677565b905092915050565b6000602082019050614bb06000830184614712565b92915050565b6000604082019050614bcb6000830185614712565b614bd86020830184614712565b9392505050565b6000606082019050614bf46000830186614712565b614c016020830185614712565b614c0e6040830184613d31565b949350505050565b6000604051905081810181811067ffffffffffffffff82111715614c3d57614c3c615021565b5b8060405250919050565b600067ffffffffffffffff821115614c6257614c61615021565b5b601f19601f8301169050602081019050919050565b600067ffffffffffffffff821115614c9257614c91615021565b5b601f19601f8301169050602081019050919050565b6000819050602082019050919050565b60008190508160005260206000209050919050565b600081519050919050565b600081519050919050565b600081519050919050565b6000602082019050919050565b600082825260208201905092915050565b600082825260208201905092915050565b600082825260208201905092915050565b600082825260208201905092915050565b600081905092915050565b6000614d5482614e8a565b9150614d5f83614e8a565b9250827fffffffffffffffffffffffffffffffffffffffffffffffffffffffffffffffff03821115614d9457614d93614f94565b5b828201905092915050565b6000614daa82614e8a565b9150614db583614e8a565b925082614dc557614dc4614fc3565b5b828204905092915050565b6000614ddb82614e8a565b9150614de683614e8a565b925082821015614df957614df8614f94565b5b828203905092915050565b6000614e0f82614e6a565b9050919050565b60008115159050919050565b60007fffffffff0000000000000000000000000000000000000000000000000000000082169050919050565b60006fffffffffffffffffffffffffffffffff82169050919050565b600073ffffffffffffffffffffffffffffffffffffffff82169050919050565b6000819050919050565b6000614e9f82614e4e565b9050919050565b82818337600083830152505050565b60005b83811015614ed3578082015181840152602081019050614eb8565b83811115614ee2576000848401525b50505050565b60006002820490506001821680614f0057607f821691505b60208210811415614f1457614f13614ff2565b5b50919050565b6000614f2582614e8a565b91507fffffffffffffffffffffffffffffffffffffffffffffffffffffffffffffffff821415614f5857614f57614f94565b5b600182019050919050565b6000614f6e82614e8a565b9150614f7983614e8a565b925082614f8957614f88614fc3565b5b828206905092915050565b7f4e487b7100000000000000000000000000000000000000000000000000000000600052601160045260246000fd5b7f4e487b7100000000000000000000000000000000000000000000000000000000600052601260045260246000fd5b7f4e487b7100000000000000000000000000000000000000000000000000000000600052602260045260246000fd5b7f4e487b7100000000000000000000000000000000000000000000000000000000600052604160045260246000fd5b6000601f19601f8301169050919050565b61506a81614e04565b811461507557600080fd5b50565b61508181614e16565b811461508c57600080fd5b50565b61509881614e22565b81146150a357600080fd5b50565b6150af81614e4e565b81146150ba57600080fd5b50565b6150c681614e8a565b81146150d157600080fd5b5056fea264697066735822122093e02f12102e61cf390ca429712504c9e1e95ff64744ee05fb1542056ae9a44664736f6c63430008000033",
  "immutableReferences": {},
  "source": "pragma solidity ^0.8.0;\r\n\r\nimport \"@openzeppelin/contracts/token/ERC20/presets/ERC20PresetFixedSupply.sol\";\r\nimport \"@openzeppelin/contracts/token/ERC721/extensions/ERC721Enumerable.sol\";\r\nimport \"@openzeppelin/contracts/token/ERC721/extensions/ERC721URIStorage.sol\";\r\nimport \"@openzeppelin/contracts/access/Ownable.sol\";\r\nimport \"@openzeppelin/contracts/utils/Counters.sol\";\r\n\r\ncontract CryptoCoffee is ERC721Enumerable, ERC721URIStorage, Ownable {\r\n    IERC20 private _token; // IERC20 token instance which will be used for payments.\r\n\r\n    using Counters for Counters.Counter;\r\n    Counters.Counter private _tokenIds;\r\n\r\n    constructor(IERC20 token) ERC721(\"CryptoCoffee\", \"CRPTCF\") {\r\n        // This contract takes in ERC20 contract address for deployment.\r\n        _token = token;\r\n    }\r\n\r\n    receive() external payable {}\r\n\r\n    event nftPriceSet(uint256 tokenId, uint256 amount); // Emitted when an NFT price is set and put on sale.\r\n    event SaleSuccessful(uint256 tokenId, uint256 price, address buyer); // Emiited when a buyer successfully transfers RCED tokens to seller.\r\n\r\n    struct NFT {\r\n        // Edit: string asset has been removed, name change could be limited to web only, no requirement to put on blockchain.\r\n        address owner; // NFT owner.\r\n        uint256 price; // NFT sale price.\r\n        bool onSale; // NFT on sale bool.\r\n        string metadata; // NFT metadata.\r\n        string hash; // NFT hash.\r\n    }\r\n\r\n    mapping(string => bool) hashExists; // Map hash to bool.\r\n    mapping(uint256 => NFT) tokenIdToNft; // Map token ID to NFT struct.\r\n    mapping(uint256 => uint256) tokenIdToMintingCost; // Map token ID to its minting cost.\r\n\r\n    modifier onlySeller(uint256 _tokenId) {\r\n        // Checks if caller is NFT owner or approved address.\r\n        require(_exists(_tokenId));\r\n        require(_isApprovedOrOwner(msg.sender, _tokenId));\r\n        _;\r\n    }\r\n\r\n    // The following are virtual functions.\r\n    // These do not have any use in this contract.\r\n    // Required to override conflicting functions of ERC721Enumerable and ERC721URIStorage.\r\n    function supportsInterface(bytes4 interfaceId)\r\n        public\r\n        view\r\n        virtual\r\n        override(ERC721Enumerable, ERC721)\r\n        returns (bool)\r\n    {\r\n        return\r\n            interfaceId == type(IERC721Enumerable).interfaceId ||\r\n            super.supportsInterface(interfaceId);\r\n    }\r\n\r\n    function _beforeTokenTransfer(\r\n        address from,\r\n        address to,\r\n        uint256 tokenId\r\n    ) internal virtual override(ERC721, ERC721Enumerable) {\r\n        super._beforeTokenTransfer(from, to, tokenId);\r\n    }\r\n\r\n    function _burn(uint256 tokenId)\r\n        internal\r\n        virtual\r\n        override(ERC721, ERC721URIStorage)\r\n    {\r\n        super._burn(tokenId);\r\n    }\r\n\r\n    function tokenURI(uint256 tokenId)\r\n        public\r\n        view\r\n        virtual\r\n        override(ERC721URIStorage, ERC721)\r\n        returns (string memory)\r\n    {\r\n        return super.tokenURI(tokenId);\r\n    }\r\n\r\n    // Override functions end here.\r\n\r\n    function buyRicheduToken() external payable {\r\n        // The first function any new user will interact with.\r\n        // This allows user to pay ether to this smart contract and get RCED tokens to execute all other functions.\r\n        require(msg.value > 0); // Check if user pays at least something.\r\n        require(_token.balanceOf(address(this)) >= msg.value); // Check if smart contract has enough RCED tokens to give to user.\r\n        _token.transfer(msg.sender, msg.value); // Transfer RCED tokens from smart contract to caller.\r\n    }\r\n\r\n    function sellRicheduToken(uint256 _amount) external {\r\n        // Function to exchange RCED to ETH.\r\n        // This function assumes user has approved the smart contract to transfer tokens on his behalf.\r\n        // More details on how to approve can be found in README.\r\n        // User inputs how much RCED he wants to exchange into ETH.\r\n        require(_amount > 0); // Check if user exchanges at least some tokens.\r\n        require(_token.allowance(msg.sender, address(this)) >= _amount); // Check if caller has approved this smart contract for transferring tokens.\r\n        _token.transferFrom(msg.sender, address(this), _amount); // Transfer RCED tokens from caller to smart contract.\r\n        payable(msg.sender).transfer(_amount); // Send ETH to caller.\r\n    }\r\n\r\n    function mintNFT(\r\n        string memory _hash,\r\n        string memory _metadata,\r\n        uint128 _mintingCost,\r\n        uint256 userPays\r\n    ) external {\r\n        // Mint function.\r\n        // _hash, _metadata, _mintingCost automatically fetched.\r\n        // userPays is user input of amount of RCED tokens the user is paying.\r\n        require(hashExists[_hash] != true); // Check if NFT already exists.\r\n        require(_mintingCost == userPays); // Check if userPays is equal to generated mintingCost, revert if not equal.\r\n        hashExists[_hash] = true; // Set hash exists for new NFT.\r\n        _tokenIds.increment();\r\n        uint256 newTokenId = _tokenIds.current(); // Set token ID for NFT.\r\n        _safeMint(msg.sender, newTokenId); // Mint NFT.\r\n        _setTokenURI(newTokenId, _metadata);\r\n        NFT storage nft = tokenIdToNft[newTokenId];\r\n        nft.metadata = _metadata; // Set metadata in struct.\r\n        nft.hash = _hash; // Set hash in struct.\r\n        tokenIdToMintingCost[newTokenId] = _mintingCost; // Map token ID to its minting cost.\r\n        _token.transferFrom(msg.sender, address(this), _mintingCost); // Transfer RCED tokens from caller to smart contract.\r\n        nft.owner = msg.sender; // Set owner in struct.\r\n        emit Transfer(address(this), msg.sender, newTokenId); // Transfer event.\r\n    }\r\n\r\n    function setPricePutOnSale(uint256 _tokenId, uint256 _amount)\r\n        external\r\n        onlySeller(_tokenId)\r\n    {\r\n        // Set price of NFT in RCED tokens.\r\n        NFT storage nft = tokenIdToNft[_tokenId];\r\n        nft.price = _amount; // Set NFT price.\r\n        nft.onSale = true; // Put NFT on sale.\r\n        emit nftPriceSet(_tokenId, _amount); // Price set event.\r\n    }\r\n\r\n    function burnNFT(uint256 _tokenId) external onlySeller(_tokenId) {\r\n        // Burn NFT and send 75% of minting cost back to NFT owner.\r\n        require(tokenIdToNft[_tokenId].onSale != true); // Check if NFT is on sale. Revert if true.\r\n        delete hashExists[tokenIdToNft[_tokenId].hash]; // Delete hash of the NFT. Allows same NFT to be minted again in future.\r\n        delete tokenIdToNft[_tokenId]; // Delete NFT struct.\r\n        uint256 mintingCost = tokenIdToMintingCost[_tokenId]; // Get minting cost in RCED.\r\n        uint256 backToUser = mintingCost - mintingCost / 4; // 75% of minting cost to be paid back to user in RCED.\r\n        _token.transfer(msg.sender, backToUser); // Transfer RCED tokens.\r\n        _burn(_tokenId); // Burn the NFT.\r\n    }\r\n\r\n    function buyAtSale(uint256 _tokenId, uint256 userPays) external {\r\n        // Buy NFT at a sale.\r\n        NFT storage nft = tokenIdToNft[_tokenId];\r\n        require(nft.onSale); // Check if NFT is on sale. Revert if not on sale.\r\n        require(nft.price == userPays); // Check if user is paying what seller asks for. Transaction in RCED tokens. Revert if not equal.\r\n        _removeSale(_tokenId); // Remove NFT from sale to avoid someone else to accidentally pay for sold NFT.\r\n        if (nft.price > 0) {\r\n            _token.transferFrom(msg.sender, nft.owner, nft.price); // Transfer RCED tokens from buyer to NFT owner.\r\n        }\r\n        emit SaleSuccessful(_tokenId, nft.price, msg.sender); // Success event.\r\n        _transfer(tokenIdToNft[_tokenId].owner, msg.sender, _tokenId); // Transfer NFT ownership to buyer.\r\n        emit Transfer(tokenIdToNft[_tokenId].owner, msg.sender, _tokenId); // Transfer event.\r\n        tokenIdToNft[_tokenId].owner = msg.sender; // Update owner in mapping.\r\n    }\r\n\r\n    function _removeSale(uint256 _tokenId) internal {\r\n        // Internal function to remove an NFT from sale after a buyer purchases it.\r\n        delete tokenIdToNft[_tokenId].onSale;\r\n    }\r\n\r\n    function stopSale(uint256 _tokenId) external onlySeller(_tokenId) {\r\n        // Externally called function. Allows seller to make modifications to the sale.\r\n        delete tokenIdToNft[_tokenId].onSale;\r\n    }\r\n\r\n    function giftNFT(address _giftTo, uint256 _tokenId)\r\n        external\r\n        onlySeller(_tokenId)\r\n    {\r\n        // Send an NFT for zero RCED tokens.\r\n        require(tokenIdToNft[_tokenId].onSale != true);\r\n        safeTransferFrom(msg.sender, _giftTo, _tokenId);\r\n        emit Transfer(msg.sender, _giftTo, _tokenId);\r\n    }\r\n\r\n    function owned_NFTs() external view returns (uint256[] memory) {\r\n        // Returns token IDs of all NFTs the caller has.\r\n        uint256[] memory nftList = new uint256[](balanceOf(msg.sender));\r\n        uint256 tokenIndex;\r\n\r\n        for (tokenIndex = 0; tokenIndex < balanceOf(msg.sender); tokenIndex++) {\r\n            nftList[tokenIndex] = tokenOfOwnerByIndex(msg.sender, tokenIndex);\r\n        }\r\n        return nftList;\r\n    }\r\n\r\n    function NFT_details(uint256 _tokenId)\r\n        external\r\n        view\r\n        onlySeller(_tokenId)\r\n        returns (NFT memory)\r\n    {\r\n        // Returns NFT struct of the token ID.\r\n        return tokenIdToNft[_tokenId];\r\n    }\r\n}\r\n",
  "sourcePath": "C:/Users/user/Desktop/DS/Projects/internship_projects/cryptoCoffee/src/contracts/ERC721.sol",
  "compiler": {
    "name": "solc",
    "version": "0.8.0+commit.c7dfd78e.Emscripten.clang"
  },
  "schemaVersion": "3.4.1",
  "updatedAt": "2021-05-11T10:01:36.380Z",
  "networkType": "ethereum",
  "devdoc": {
    "kind": "dev",
    "methods": {
      "approve(address,uint256)": {
        "details": "See {IERC721-approve}."
      },
      "balanceOf(address)": {
        "details": "See {IERC721-balanceOf}."
      },
      "getApproved(uint256)": {
        "details": "See {IERC721-getApproved}."
      },
      "isApprovedForAll(address,address)": {
        "details": "See {IERC721-isApprovedForAll}."
      },
      "name()": {
        "details": "See {IERC721Metadata-name}."
      },
      "owner()": {
        "details": "Returns the address of the current owner."
      },
      "ownerOf(uint256)": {
        "details": "See {IERC721-ownerOf}."
      },
      "renounceOwnership()": {
        "details": "Leaves the contract without owner. It will not be possible to call `onlyOwner` functions anymore. Can only be called by the current owner. NOTE: Renouncing ownership will leave the contract without an owner, thereby removing any functionality that is only available to the owner."
      },
      "safeTransferFrom(address,address,uint256)": {
        "details": "See {IERC721-safeTransferFrom}."
      },
      "safeTransferFrom(address,address,uint256,bytes)": {
        "details": "See {IERC721-safeTransferFrom}."
      },
      "setApprovalForAll(address,bool)": {
        "details": "See {IERC721-setApprovalForAll}."
      },
      "symbol()": {
        "details": "See {IERC721Metadata-symbol}."
      },
      "tokenByIndex(uint256)": {
        "details": "See {IERC721Enumerable-tokenByIndex}."
      },
      "tokenOfOwnerByIndex(address,uint256)": {
        "details": "See {IERC721Enumerable-tokenOfOwnerByIndex}."
      },
      "totalSupply()": {
        "details": "See {IERC721Enumerable-totalSupply}."
      },
      "transferFrom(address,address,uint256)": {
        "details": "See {IERC721-transferFrom}."
      },
      "transferOwnership(address)": {
        "details": "Transfers ownership of the contract to a new account (`newOwner`). Can only be called by the current owner."
      }
    },
    "version": 1
  },
  "userdoc": {
    "kind": "user",
    "methods": {},
    "version": 1
  }
}